:100000000C9447010C9478010C9478010C947801BD
:100010000C9478010C9478010C9478010C9478017C
:100020000C9478010C9478010C9478010C9478016C
:100030000C9478010C9478010C9478010C9478015C
:100040000C9478010C9478010C9478010C9478014C
:100050000C9478010C9478010C9478010C945C0C4D
:100060000C9478010C94F8020C94CE020C94780154
:100070000C9478010C9478010C9478010C9478011C
:100080000C9478010C9478010C9478010C9478010C
:100090000C9478010C9478010C9478010C947801FC
:1000A0000C9478010C9478010C9478010C947801EC
:1000B0000C9478010C9478010C9478010C947801DC
:1000C0000C9478010C9478010C9478010C947801CC
:1000D0000C9478010C9478010C9478010C947801BC
:1000E0000C947801960A990A880A8C0A900AD00A18
:1000F0009D0AA10AA70AAB0AAF0AB50AB90ABD0A46
:10010000D00AC30AC70ACB0A0C948C0A0C94B50A0D
:100110000C94900A0C94AB0A0C94D9010C94050E23
:100120000C94A10A0C94C70A0C94A8010C94C30A5D
:100130000C949D0A0C9411020C947B010C94A70A58
:100140000C94B90A0C94AF0A0C94D00A0C94BD0A12
:100150000C94CB0A0C94CB010C94880A0C94960A4C
:100160000C94990A0C94B7010C945E0200002100D3
:10017000240027002A002D00300033000101000078
:10018000040107010A0100002200250028002B00BD
:100190002E003100340002010000050108010B01AE
:1001A00000000A0B02090C0D0E08070304010000F1
:1001B000000000000000000000000000000000003F
:1001C00000000000000000000000000012111000FC
:1001D000000000000000000000000000000000001F
:1001E000000000000000000020002300260029007D
:1001F0002C002F003200000100000301060109015C
:1002000005050505070508080808020202020A0A92
:1002100008080404040401010101010101010303B0
:10022000030303030303040707070C0C0C0C0C0C5B
:100230000C0C0202020206060606060606060B0B58
:100240000B0B0B0B0B0B0102102020080810204099
:10025000102040800201020108040201010204088A
:100260001020408080402010080402018004020118
:100270008040201008040201080402010102040861
:10028000102040800102040810204080050E112437
:100290001FBECFEFD1E2DEBFCDBF00E00CBF12E04A
:1002A000A0E0B2E0E8E1F8E200E00BBF02C0079096
:1002B0000D92A437B107D9F723E0A4E7B2E001C05B
:1002C0001D92AC32B207E1F711E0C7E4D1E000E0E3
:1002D00006C021970109802FFE010E94B510C63487
:1002E000D10780E00807A9F70E94340E0C940A1485
:1002F0000C9400000895CF92DF92EF92FF920F933B
:100300001F93CF93DF936C017A018B01C0E0D0E0A3
:10031000CE15DF0581F0D8016D918D01D601ED91EB
:10032000FC910190F081E02DC6011995892B11F007
:100330002196EECF7E01C701DF91CF911F910F91E2
:10034000FF90EF90DF90CF90089580E090E00895C7
:10035000FC01538D448D252F30E0842F90E0821BCB
:10036000930B541710F0CF96089501970895FC0150
:10037000918D828D981761F0828DDF01A80FB11DDC
:100380005D968C91928D9F5F9F73928F90E0089500
:100390008FEF9FEF0895FC01918D828D981731F0BA
:1003A000828DE80FF11D858D90E008958FEF9FEF0E
:1003B0000895FC01918D228D892F90E0805C9F4FE4
:1003C000821B91098F739927089584E792E00E9418
:1003D000D90121E0892B09F420E0822F0895FC0146
:1003E000848DDF01A80FB11DA35ABF4F2C91848DBE
:1003F00090E001968F739927848FA689B7892C93F3
:10040000A089B1898C91837080648C93938D848D45
:10041000981306C00288F389E02D80818F7D808348
:100420000895EF92FF920F931F93CF93DF93EC0108
:1004300081E0888F9B8D8C8D981305C0E889F989A0
:10044000808185FD26C0F62E0B8D10E00F5F1F4FBB
:100450000F731127E02E8C8DE8120CC00FB607FC2D
:10046000FACFE889F989808185FFF5CFCE010E9416
:10047000EF01F1CF8B8DFE01E80FF11DE35AFF4F25
:10048000F0829FB7F8940B8FEA89FB8980818062A4
:100490000AC09FB7F894EE89FF896083E889F989DB
:1004A00080818370806480839FBF81E090E0DF91D2
:1004B000CF911F910F91FF90EF900895CF93DF930D
:1004C000EC01888D8823C9F0EA89FB89808185FD4C
:1004D00005C0A889B9898C9186FD0FC00FB607FCAD
:1004E000F5CF808185FFF2CFA889B9898C9185FFEE
:1004F000EDCFCE010E94EF01E7CFDF91CF910895BC
:1005000080E090E0892B21F00E94E501811125C057
:1005100080E090E0892B41F080E090E0892B21F091
:100520000E94000081111CC080E090E0892B41F006
:1005300080E090E0892B21F00E940000811113C01F
:1005400080E090E0892BA1F080E090E0892B81F0A1
:100550000E94000081110AC008950E940000D8CFB7
:100560000E940000E1CF0E940000EACF0C9400003E
:100570000895FC0111821082138212821582148266
:100580006115710551F0FB0101900020E9F73197E9
:10059000AF01461B570B0C94710D08951F920F92DB
:1005A0000FB60F9211240BB60F922F933F934F93D8
:1005B0005F936F937F938F939F93AF93BF93EF93CB
:1005C000FF9384E792E00E94EF01FF91EF91BF91CA
:1005D000AF919F918F917F916F915F914F913F91DB
:1005E0002F910F900BBE0F900FBE0F901F9018957C
:1005F0001F920F920FB60F9211240BB60F922F93EA
:100600008F939F93EF93FF93E0918402F091850283
:100610008081E0918A02F0918B0282FD12C090816C
:1006200080918D028F5F8F7320918E02821751F01F
:10063000E0918D02F0E0EC58FD4F958F80938D0294
:1006400001C08081FF91EF919F918F912F910F9029
:100650000BBE0F900FBE0F901F9018958F929F9218
:10066000AF92BF92CF92DF92EF92FF920F931F93C0
:10067000CF93DF93CDB7DEB768970FB6F894DEBFA0
:100680000FBECDBF89ECC82E8CEFD82EEE24EA9495
:10069000FE2C84E792E00E94D901892B09F433C52E
:1006A00063E572E0CE0107960E94B9020E94270A14
:1006B00097FD1EC08D309105D9F089831A820B8574
:1006C0001C850F5F1F4FB801CE0107960E944A0D8F
:1006D000882361F32F8138858B859C85BE016F5FF0
:1006E0007F4F820F931F0E94E9131C870B87DECF79
:1006F00068E172E0CE0101960E94B902BE016F5F0F
:100700007F4FCE0107960E9442098C01CE010196CF
:100710000E949C0D17FDDBC06FE172E0CE01439695
:100720000E94B902BE016D5E7F4FCE0107960E9406
:1007300042098C016DE172E0CE010D960E94B90272
:10074000BE01635F7F4FCE0107960E944209AC0154
:100750004F5F5F4F9801BE01695F7F4FCE010196E9
:100760000E94A10DCE010D960E949C0DCE014396D4
:100770000E949C0D61E272E0CE010D960E94B902CA
:10078000BE01635F7F4FCE0101960E9442099C012A
:1007900040E050E0BE016F5F7F4FCE0143960E9464
:1007A000A10DCE0143960E94A60C062FCE014396C2
:1007B0000E949C0DCE010D960E949C0D61E272E09C
:1007C000CE010D960E94B902BE01635F7F4FCE013C
:1007D00001960E9442092D813E81AC014F5F5F4F1F
:1007E000BE016F5F7F4FCE0143960E94A10DBE01F7
:1007F0006D5E7F4FCE0101960E94110DCE01439692
:100800000E949C0DCE010D960E949C0DCE0101967A
:100810000E94B10C61E272E0CE010D960E94B90215
:10082000BE01635F7F4FCE0101960E9442099C0189
:1008300040E050E0BE016F5F7F4FCE0143960E94C3
:10084000A10DCE0143960E94A60C162FCE01439611
:100850000E949C0DCE010D960E949C0D61E0812F9F
:100860000E94E50A61E0812F0E94670A802F0E94A2
:100870007A0B8090110390901203A0901303B09014
:10088000140320E030E048EC52E4C501B4010E94BA
:10089000CB1118165CF320E030E0A901C501B401CA
:1008A0000E94330F87FDE2CF8090150390901603CE
:1008B000A0901703B090180320E030E048EC52EC11
:1008C000C501B4010E94330F87FDD0CFF3C163E2AD
:1008D00072E0CE0101960E94B902BE016F5F7F4FA8
:1008E000CE0107960E9442098C01CE0101960E941A
:1008F0009C0D17FDF3C06FE172E0CE0143960E949C
:10090000B902BE016D5E7F4FCE0107960E9442097B
:100910008C016DE172E0CE010D960E94B902BE011C
:10092000635F7F4FCE0107960E944209AC014F5F83
:100930005F4F9801BE01695F7F4FCE0101960E9413
:10094000A10DCE010D960E949C0DCE0143960E94F2
:100950009C0D61E272E0CE010D960E94B902BE01CB
:10096000635F7F4FCE0101960E9442099C0140E0E7
:1009700050E0BE016F5F7F4FCE0143960E94A10DF4
:10098000CE0143960E94A60C062FCE0143960E94EC
:100990009C0DCE010D960E949C0D61E272E0CE018D
:1009A0000D960E94B902BE01635F7F4FCE01019692
:1009B0000E9442092D813E81AC014F5F5F4FBE0115
:1009C0006F5F7F4FCE0143960E94A10DBE016D5E09
:1009D0007F4FCE0101960E94110DCE0143960E94D9
:1009E0009C0DCE010D960E949C0DCE0101960E9499
:1009F000B10C61E272E0CE010D960E94B902BE0117
:100A0000635F7F4FCE0101960E9442099C0140E046
:100A100050E0BE016F5F7F4FCE0143960E94A10D53
:100A2000CE0143960E94A60C162FCE0143960E943B
:100A30009C0DCE010D960E949C0D61E0812F0E94BD
:100A4000E50A61E0812F0E94670A802F0E947A0BDD
:100A50008090110390901203A0901303B0901403A0
:100A600020E030E048EC52E4C501B4010E94CB1113
:100A700018165CF320E030E0A901C501B4010E9422
:100A8000330F87FDE2CF8090150390901603A0905E
:100A90001703B090180320E030E048EC52ECC50199
:100AA000B4010E94330F87FDD0CF60E0812F0E94F8
:100AB000670A20E030E040E151E4C501B4010E9442
:100AC000990F20E030E040EA50E40E942A1120E033
:100AD00030E040E052E40E94BE10E4C16AE272E0FD
:100AE000CE0101960E94B902BE016F5F7F4FCE0119
:100AF00007960E9442098C01CE0101960E949C0D2E
:100B000017FDDFC06FE172E0CE0143960E94B9028B
:100B1000BE016D5E7F4FCE0107960E9442098C0197
:100B20006DE172E0CE010D960E94B902BE01635FD5
:100B30007F4FCE0107960E944209AC014F5F5F4F85
:100B40009801BE01695F7F4FCE0101960E94A10D01
:100B5000CE010D960E949C0DCE0143960E949C0DE5
:100B600061E272E0CE010D960E94B902BE01635FA0
:100B70007F4FCE0101960E9442099C0140E050E067
:100B8000BE016F5F7F4FCE0143960E94A10DCE0143
:100B900043960E94A60C062FCE0143960E949C0D00
:100BA000CE010D960E949C0D61E272E0CE010D9681
:100BB0000E94B902BE01635F7F4FCE0101960E9481
:100BC00042092D813E81AC014F5F5F4FBE016F5FD7
:100BD0007F4FCE0143960E94A10DBE016D5E7F4FF7
:100BE000CE0101960E94110DCE0143960E949C0DEC
:100BF000CE010D960E949C0DCE0101960E94B10C73
:100C000061E272E0CE010D960E94B902BE01635FFF
:100C10007F4FCE0101960E9442099C0140E050E0C6
:100C2000BE016F5F7F4FCE0143960E94A10DCE01A2
:100C300043960E94A60C162FCE0143960E949C0D4F
:100C4000CE010D960E949C0D61E0812F0E94E50A65
:100C500061E0812F0E94670A802F0E947A0B8090AA
:100C6000110390901203A0901303B090140320E09E
:100C700030E048EC52E4C501B4010E94CB111816D3
:100C80005CF320E030E0A901C501B4010E94330FFC
:100C900087FDE2CF20E030E048EC52EC6091150394
:100CA0007091160380911703909118030E94330FDF
:100CB00087FDD2CF60E0812F0E94670AC501B40191
:100CC000F1C064E372E0CE0101960E94B902BE0158
:100CD0006F5F7F4FCE0107960E9442098C01CE01C3
:100CE00001960E949C0D17FDE0C06FE172E0CE01FD
:100CF00043960E94B902BE016D5E7F4FCE010796FA
:100D00000E9442098C016DE172E0CE010D960E94B5
:100D1000B902BE01635F7F4FCE0107960E94420970
:100D2000AC014F5F5F4F9801BE01695F7F4FCE01FD
:100D300001960E94A10DCE010D960E949C0DCE0140
:100D400043960E949C0D61E272E0CE010D960E94D6
:100D5000B902BE01635F7F4FCE0101960E94420936
:100D60009C0140E050E0BE016F5F7F4FCE01439693
:100D70000E94A10DCE0143960E94A60C162FCE0113
:100D800043960E949C0DCE010D960E949C0D61E23F
:100D900072E0CE010D960E94B902BE01635F7F4FE3
:100DA000CE0101960E9442092D813E81AC014F5F28
:100DB0005F4FBE016F5F7F4FCE0143960E94A10D32
:100DC000BE016D5E7F4FCE0101960E94110DCE01D6
:100DD00043960E949C0DCE010D960E949C0DCE0163
:100DE00001960E94B10C61E272E0CE010D960E9464
:100DF000B902BE01635F7F4FCE0101960E94420996
:100E00009C0140E050E0BE016F5F7F4FCE014396F2
:100E10000E94A10DCE0143960E94A60CB62ECE01D3
:100E200043960E949C0DCE010D960E949C0D61E0A0
:100E30008B2D0E94E50A61E08B2D0E94670A62E318
:100E400070E080E090E00E94400B82E492E00E941B
:100E5000BD08812F0E94210B0E941009812F0E9442
:100E6000210B8C0162E370E080E090E00E94400B77
:100E700060E08B2D0E94670AC801110FAA0BBB0B03
:100E80009C01AD012F5F334041095109A4E6B0E058
:100E90000E947910A70196010E945A10CA01B90157
:100EA0000E943A0F0E945C0925C16AE472E0CE01FB
:100EB00001960E94B902BE016F5F7F4FCE01079677
:100EC0000E9442098C01CE0101960E949C0D17FDE3
:100ED00015C16FE172E0CE0143960E94B902BE01D6
:100EE0006D5E7F4FCE0107960E9442098C016DE135
:100EF00072E0CE010D960E94B902BE01635F7F4F82
:100F0000CE0107960E944209AC014F5F5F4F9801E6
:100F1000BE01695F7F4FCE0101960E94A10DCE01F7
:100F20000D960E949C0DCE0143960E949C0D61E29D
:100F300072E0CE010D960E94B902BE01635F7F4F41
:100F4000CE0101960E9442099C0140E050E0BE01A2
:100F50006F5F7F4FCE0143960E94A10DCE01439655
:100F60000E94A60C162FCE0143960E949C0DCE0126
:100F70000D960E949C0D61E272E0CE010D960E94DA
:100F8000B902BE01635F7F4FCE0101960E94420904
:100F90002D813E81AC014F5F5F4FBE016F5F7F4F80
:100FA000CE0143960E94A10DBE016D5E7F4FCE0122
:100FB00001960E94110DCE0143960E949C0DCE0118
:100FC0000D960E949C0DCE0101960E94B10C61E22B
:100FD00072E0CE010D960E94B902BE01635F7F4FA1
:100FE000CE0101960E9442099C0140E050E0BE0102
:100FF0006F5F7F4FCE0143960E94A10DCE014396B5
:101000000E94A60C062FCE0143960E949C0DCE0195
:101010000D960E949C0D61E272E0CE010D960E9439
:10102000B902BE01635F7F4FCE0101960E94420963
:101030002D813E81AC014F5F5F4FBE016F5F7F4FDF
:10104000CE0143960E94A10DBE016D5E7F4FCE0181
:1010500001960E94110DCE0143960E949C0DCE0177
:101060000D960E949C0DCE0101960E94B10C61E28A
:1010700072E0CE010D960E94B902BE01635F7F4F00
:10108000CE0101960E9442099C0140E050E0BE0161
:101090006F5F7F4FCE0143960E94A10DCE01439614
:1010A0000E94A60C4B015C01CE0143960E949C0D50
:1010B000CE010D960E949C0D61E0812F0E94E50AF1
:1010C00061E0802F0E94E50A61E0812F0E94670A9B
:1010D00060E0802F0E94670AB401990C880B990B7D
:1010E0000E94400B60E0812F0E94670A80E090E040
:1010F0000E941009CE0101960E949C0DCE01079618
:101100000E949C0DC6CA68960FB6F894DEBF0FBE4B
:10111000CDBFDF91CF911F910F91FF90EF90DF90A6
:10112000CF90BF90AF909F908F9008953FB7F89465
:101130008091200390912103A0912203B091230379
:1011400026B5A89B05C02F3F19F00196A11DB11D22
:101150003FBFBA2FA92F982F8827820F911DA11D5D
:10116000B11DBC01CD0142E0660F771F881F991F9A
:101170004A95D1F708950E94DB13009769F0FC01AE
:1011800001900020E9F73197AF01481B590BBC01D2
:1011900084E792E00C947B0180E090E008958F92C8
:1011A0009F92AF92BF920F931F93CF93DF93CDB7D0
:1011B000DEB7A1970FB6F894DEBF0FBECDBF19A260
:1011C000423008F44AE08E010F5D1F4F842E912CAF
:1011D000A12CB12CA50194010E948410E62FB90125
:1011E000CA0101501109EA3014F4E05D01C0E95C64
:1011F000D801EC93232B242B252B61F7C8010E94E7
:10120000BD08A1960FB6F894DEBF0FBECDBFDF912B
:10121000CF911F910F91BF90AF909F908F900895A5
:10122000CF92DF92EF92FF92CF93DF936C01990FF1
:10123000EE08FF08F7FE13C06DE284E792E00E941B
:101240001102EC0166277727CB016C197D098E0905
:101250009F094AE00E94CF08C80FD91F06C04AE084
:10126000C701B6010E94CF08EC0181E592E00E941F
:10127000BD088C0F9D1FDF91CF91FF90EF90DF9005
:10128000CF900895CF93DF93FC0124813581232BE8
:1012900071F0FB01DC01CD91DC9160817181CE01A7
:1012A0000E94F013009719F08C1B9D0B02C08FEF6A
:1012B0009FEFDF91CF9108954F925F926F927F924F
:1012C0008F929F92AF92BF92CF92DF92EF92FF9256
:1012D0006B017C019B01AC010E94D011882319F0A5
:1012E00084E592E01AC046015701E894B7F82FEF61
:1012F0003FEF4FE75FE7C501B4010E94D0118111B4
:1013000010C02FEF3FEF4FE75FE7C501B4010E9428
:10131000330F181634F488E592E00E94BD087C0172
:1013200083C02FEF3FEF4FE75FE4C701B6010E9494
:10133000CB1118161CF48CE592E0EFCF2FEF3FEFA6
:101340004FE75FECC701B6010E94330F87FDF3CF73
:1013500020E030E0A901C701B6010E94330F87FFEA
:101360000BC06DE284E792E00E9411025C01F7FA83
:10137000F094F7F8F09402C0A12CB12C2AE037EDDC
:1013800043EA5BE3C701B6010E94BE102B013C019A
:101390000E949C116B017C010E94380F9B01AC01E3
:1013A000C301B2010E94BD102B013C014AE0C701FC
:1013B000B6010E94CF087C01EA0CFB1C6EE284E7B8
:1013C00092E00E941102E80EF91E20E030E040E2B7
:1013D00051E4C301B2010E94990F2B013C010E940C
:1013E0009C114B01A12CB12C4AE0C501B4010E9413
:1013F000CF08E80EF91EC501B4010E94380F9B0109
:10140000AC01C301B2010E94BD1020E030E040E217
:1014100051E40E94990F0E949C1180E090E04AE004
:101420000E94CF08E80EF91E81E592E00E94BD08F7
:101430008E0D9F1DFF90EF90DF90CF90BF90AF90EB
:101440009F908F907F906F905F904F9008952FB7EF
:10145000F8948091240390912503A0912603B091E4
:1014600027032FBF80937C0290937D02A0937E027E
:10147000B0937F0284E792E00E94B70197FF26C0F5
:101480002FB7F8948091240390912503A09126030F
:10149000B09127032FBF40917C0250917D02609153
:1014A0007E0270917F02841B950BA60BB70B4091B7
:1014B00078025091790260917A0270917B028417D0
:1014C0009507A607B707B0F28FEF9FEF0895362F65
:1014D00090E0FC01E056FE4F4491FC01EA5BFD4FB9
:1014E0002491FC01E050FE4F9491992309F46CC0C3
:1014F000442309F455C050E0FA013197E231F10577
:1015000008F04EC08827EE58FF4F8F4F0C94B5104F
:10151000809180008F7707C0809180008F7D03C00D
:1015200080918000877F809380003AC084B58F7758
:1015300002C084B58F7D84BD33C08091B0008F77A9
:1015400003C08091B0008F7D8093B00029C080914E
:1015500090008F7707C0809190008F7D03C08091AD
:101560009000877F809390001BC08091A0008F77B0
:1015700007C08091A0008F7D03C08091A000877F6D
:101580008093A0000DC0809120018F7707C08091CB
:1015900020018F7D03C080912001877F80932001EF
:1015A000E92FF0E0EE0FFF1FEA57FE4FA591B4912F
:1015B0009FB7F894311104C08C912095282302C064
:1015C000EC912E2B2C939FBF0895CF93DF9390E047
:1015D000FC01EA5BFD4F2491FC01E050FE4F849139
:1015E000882361F190E0880F991FFC01E459FE4FB8
:1015F000C591D491FC01EA57FE4FA591B4916111B8
:1016000009C09FB7F8948881209582238883EC9144
:101610002E230BC0623061F49FB7F8948881322F7B
:10162000309583238883EC912E2B2C939FBF06C08B
:101630008FB7F894E8812E2B28838FBFDF91CF914D
:101640000895863308F0865390917B00282F2870E8
:10165000977F922B90937B008770806480937C00AF
:1016600080917A00806480937A0080917A0086FD70
:10167000FCCF809178002091790090E0922B089522
:101680008F929F92AF92BF92CF92DF92EF92FF9292
:101690006B017C010E9496084B015C01C114D104CE
:1016A000E104F104F1F00E949608DC01CB018819F5
:1016B0009909AA09BB09883E9340A105B10570F3B9
:1016C00021E0C21AD108E108F10888EE880E83E013
:1016D000981EA11CB11CC114D104E104F10419F736
:1016E000DDCFFF90EF90DF90CF90BF90AF909F90B5
:1016F0008F9008957F928F929F92AF92BF92CF92D8
:10170000DF92EF92FF920F931F93CF93DF93D82F27
:1017100080911E03882309F0F8948D2F90E0FC013E
:10172000EA5BFD4F7490FC01E050FE4FE491F0E065
:10173000EE0FFF1FEA51FE4F0591149161E08D2FCE
:101740000E94E50A60E08D2F0E94670A62E170E066
:1017500080E090E00E94400B60E08D2F0E94E50A3F
:1017600080E293E0E8012881272121F00197D1F759
:101770001DEF5DC080E991E0F8012081272121F46F
:101780000197D1F71CEF53C080E991E0E80128816F
:10179000272121F00197D1F71BEF49C0A0E060E0BD
:1017A00040E820E030E080E991E0E0E9F1E0B0E0FD
:1017B00078E250E9852E99249394A12CB12CE8016C
:1017C0005881572161F5BB2351F1783299F48E1776
:1017D0009F0708F4FC0175016401CE1ADF0AE108D5
:1017E000F10882E0F594E794D794C7948A95D1F7ED
:1017F000960107C07F01E21AF30AE816F90608F01D
:10180000642B469549F48A2F90E08F5E9C4FEC0143
:101810006887AF5F60E040E8715080E991E0019730
:1018200029F0B52F7111CBCF10E001C01EEF8091D0
:101830001E03882309F07894D0911903DF77D093A1
:101840001903C0911B03CF77C0931B036D2F70E06A
:1018500080E090E00E94380F6093110370931203B0
:1018600080931303909314036C2F70E080E090E05A
:101870000E94380F6093150370931603809317032B
:101880009093180390911A0380911C03890FD80F2D
:10189000CD0F80911D03C8131FEF812FDF91CF91D2
:1018A0001F910F91FF90EF90DF90CF90BF90AF907E
:1018B0009F908F907F9008951F920F920FB60F9276
:1018C00011242F933F938F939F93AF93BF93809156
:1018D000240390912503A0912603B0912703309112
:1018E0001F0323E0230F2D3720F40196A11DB11D06
:1018F00005C026E8230F0296A11DB11D20931F03EA
:101900008093240390932503A0932603B093270389
:101910008091200390912103A0912203B091230391
:101920000196A11DB11D8093200390932103A093E4
:101930002203B0932303BF91AF919F918F913F9169
:101940002F910F900FBE0F901F901895FC01808172
:101950009181009711F00C94EE0E60E070E0CB01E5
:101960000895AF92BF92CF92DF92EF92FF920F93C2
:101970001F93CF93DF93DC01CD90DC901197C114BE
:10198000D10409F443C01496CD91DC9115972097AA
:10199000E9F18C0176015701BFEFAB1ABB0AF701E1
:1019A0008081082E000C990B0E942A0F892B11F0C0
:1019B0007501F1CF2197CC0DDD1D8881082E000C1B
:1019C000990B0E942A0F892B29F0CE15DF0510F004
:1019D0002197F3CFAE014F5F5F4F4E195F09D801DA
:1019E00015965C934E931497CE14DF0420F4B70140
:1019F000C6010E94E013D801ED91FC911197149655
:101A00008D919C911597E80FF91F1082DF91CF916E
:101A10001F910F91FF90EF90DF90CF90BF90AF900C
:101A200008950F931F93CF93DF938C01EB01FC017B
:101A3000808191810097B1F068817981611571058C
:101A400079F0428153812C813D814217530740F048
:101A50000E94E9138C819D81F8019583848313C0D2
:101A60000E946D1288819981F801918380838A8117
:101A70009B81938382838C819D819583848319824A
:101A800018821B821A821D821C82DF91CF911F91C6
:101A90000F9108950F931F93CF93DF93EC018881EB
:101AA0009981009729F02A813B812617370788F40E
:101AB0008B016F5F7F4F0E94F612009761F0998350
:101AC00088831B830A832C813D81232B11F4FC0125
:101AD000108281E001C080E0DF91CF911F910F91D2
:101AE0000895EF92FF920F931F93CF93DF93EC0132
:101AF0007B018A01BA010E944A0D28813981811136
:101B00000DC02115310519F0C9010E946D1219820D
:101B100018821D821C821B821A8206C01D830C83C0
:101B2000B701C9010E94E913CE01DF91CF911F9146
:101B30000F91FF90EF900895FC01808191810C94AA
:101B40006D12BF92CF92DF92EF92FF920F931F938D
:101B5000CF93DF937C016B01EA01890124173507DC
:101B600020F48D2FE901042F182F63E572E0C701DF
:101B70000E94B902D60114968D919C911597C817B1
:101B8000D907C0F58017910708F48C01D601ED91B3
:101B9000FC911197E00FF11FB08010826D917C9144
:101BA0006C0F7D1F6115710561F0FB010190002034
:101BB000E9F73197AF01461B570BC7010E94710D22
:101BC00013C0F70180819181009711F00E946D127E
:101BD000D70111961C921E9215961C921E92149774
:101BE00013961C921E921297D601ED91FC91E00F74
:101BF000F11FB082C701DF91CF911F910F91FF902C
:101C0000EF90DF90CF90BF900895E4E7F2E0138269
:101C1000128288EE93E0A0E0B0E084839583A683EF
:101C2000B7838AE092E09183808385EC90E095878A
:101C3000848784EC90E09787868780EC90E0918B96
:101C4000808B81EC90E0938B828B82EC90E0958B83
:101C5000848B86EC90E0978B868B118E128E138E80
:101C6000148E10921E030895789484B5826084BD0A
:101C700084B5816084BD85B5826085BD85B5816090
:101C800085BD80916E00816080936E00109281000E
:101C900080918100826080938100809181008160C9
:101CA000809381008091800081608093800080918A
:101CB000B10084608093B1008091B0008160809316
:101CC000B00080919100826080939100809191009A
:101CD000816080939100809190008160809390005A
:101CE0008091A10082608093A1008091A100816019
:101CF0008093A1008091A00081608093A0008091DA
:101D00002101826080932101809121018160809373
:101D100021018091200181608093200180917A00CF
:101D2000846080937A0080917A00826080937A0048
:101D300080917A00816080937A0080917A00806837
:101D400080937A001092C100E0918402F0918502A4
:101D500082E08083E0918002F09181021082E09124
:101D60008202F091830280E1808310928C02E091E4
:101D70008802F091890286E08083E0918602F091EA
:101D80008702808180618083E0918602F0918702E2
:101D9000808188608083E0918602F0918702808153
:101DA00080688083E0918602F091870280818F7D38
:101DB000808380ED97E0A0E0B0E08093780290937C
:101DC0007902A0937A02B0937B0280E692E00E94AF
:101DD000BD080E942E030E948002FBCF1F93FC01CE
:101DE00099278827BC01E89411911032E9F3193042
:101DF00010F01E30C8F31B3251F01D3249F46894C4
:101E000006C00E94150F610F711D811D911D11915A
:101E100010531A30B0F33EF490958095709561950B
:101E20007F4F8F4F9F4F1F910895592F482F372F66
:101E3000262F660F771F881F991F660F771F881F31
:101E4000991F620F731F841F951F660F771F881FCE
:101E5000991F089591110C940610803219F0895041
:101E60008550C8F708950E94750F08F481E0089521
:101E7000E89409C097FB3EF4909580957095619524
:101E80007F4F8F4F9F4F9923A9F0F92F96E9BB27DA
:101E90009395F695879577956795B795F111F8CF56
:101EA000FAF4BB0F11F460FF1BC06F5F7F4F8F4FC1
:101EB0009F4F16C0882311F096E911C0772321F0B7
:101EC0009EE8872F762F05C0662371F096E8862F4F
:101ED00070E060E02AF09A95660F771F881FDAF7A6
:101EE000880F9695879597F90895990F0008550FD3
:101EF000AA0BE0E8FEEF16161706E807F907C0F090
:101F000012161306E407F50798F0621B730B840B97
:101F1000950B39F40A2661F0232B242B252B21F471
:101F200008950A2609F4A140A6958FEF811D811D11
:101F300008950E94AC0F0C9420100E94121038F0EB
:101F40000E94191020F0952311F00C9409100C94A4
:101F50000F1011240C9454100E94311070F3959FAF
:101F6000C1F3950F50E0551F629FF001729FBB2790
:101F7000F00DB11D639FAA27F00DB11DAA1F649F2C
:101F80006627B00DA11D661F829F2227B00DA11DDF
:101F9000621F739FB00DA11D621F839FA00D611D65
:101FA000221F749F3327A00D611D231F849F600D86
:101FB000211D822F762F6A2F11249F5750409AF0AF
:101FC000F1F088234AF0EE0FFF1FBB1F661F771F3B
:101FD000881F91505040A9F79E3F510580F00C9406
:101FE00009100C9454105F3FE4F3983ED4F38695A7
:101FF00077956795B795F795E7959F5FC1F7FE2BA6
:10200000880F911D9695879597F9089599278827A8
:10201000089597F99F6780E870E060E008959FEF6A
:1020200080EC089500240A9416161706180609066F
:10203000089500240A94121613061406050608953E
:10204000092E0394000C11F4882352F0BB0F40F4C6
:10205000BF2B11F460FF04C06F5F7F4F8F4F9F4F06
:10206000089557FD9058440F551F59F05F3F71F088
:102070004795880F97FB991F61F09F3F79F08795EF
:102080000895121613061406551FF2CF4695F1DF78
:1020900008C0161617061806991FF1CF8695710508
:1020A000610508940895E894BB2766277727CB013C
:1020B00097F90895052E97FB1EF400940E94711065
:1020C00057FD07D00E94841007FC03D04EF40C94F7
:1020D000711050954095309521953F4F4F4F5F4F70
:1020E000089590958095709561957F4F8F4F9F4F84
:1020F00008950E94A610A59F900DB49F900DA49FD7
:10210000800D911D11240895A1E21A2EAA1BBB1B5C
:10211000FD010DC0AA1FBB1FEE1FFF1FA217B307B3
:10212000E407F50720F0A21BB30BE40BF50B661FC9
:10213000771F881F991F1A9469F76095709580958D
:1021400090959B01AC01BD01CF010895A29FB00104
:10215000B39FC001A39F700D811D1124911DB29FDB
:10216000700D811D1124911D0895EE0FFF1F881F12
:102170008BBF0790F691E02D19945058BB27AA27E2
:102180000E94D5100C9420100E94121038F00E946A
:10219000191020F039F49F3F19F426F40C940F1015
:1021A0000EF4E095E7FB0C940910E92F0E94311022
:1021B00058F3BA17620773078407950720F079F47C
:1021C000A6F50C9453100EF4E0950B2EBA2FA02D0B
:1021D0000B01B90190010C01CA01A0011124FF27D4
:1021E000591B99F0593F50F4503E68F11A16F040CF
:1021F000A22F232F342F4427585FF3CF46953795CE
:102200002795A795F0405395C9F77EF41F16BA0B92
:10221000620B730B840BBAF09150A1F0FF0FBB1F40
:10222000661F771F881FC2F70EC0BA0F621F731F89
:10223000841F48F4879577956795B795F7959E3FE6
:1022400008F0B0CF9395880F08F09927EE0F979577
:10225000879508950E943E110C9420100E94191039
:1022600058F00E94121040F029F45F3F29F00C94BE
:10227000091051110C9454100C940F100E9431103D
:1022800068F39923B1F3552391F3951B550BBB27A5
:10229000AA2762177307840738F09F5F5F4F220FEA
:1022A000331F441FAA1FA9F335D00E2E3AF0E0E8E1
:1022B00032D091505040E695001CCAF72BD0FE2F2B
:1022C00029D0660F771F881FBB1F261737074807BF
:1022D000AB07B0E809F0BB0B802DBF01FF27935877
:1022E0005F4F3AF09E3F510578F00C9409100C9422
:1022F00054105F3FE4F3983ED4F386957795679545
:10230000B795F7959F5FC9F7880F911D96958795AB
:1023100097F90895E1E0660F771F881FBB1F6217CA
:1023200073078407BA0720F0621B730B840BBA0B88
:10233000EE1F88F7E09508950E94391088F09F57A6
:1023400098F0B92F9927B751B0F0E1F0660F771FD9
:10235000881F991F1AF0BA95C9F714C0B13091F0CF
:102360000E945310B1E008950C945310672F782FFA
:102370008827B85F39F0B93FCCF386957795679594
:10238000B395D9F73EF490958095709561957F4F00
:102390008F4F9F4F08950E94750F08F48FEF089597
:1023A0000E94750F880B990B08950F931F93CF937D
:1023B000DF938230910510F482E090E0E0912A03EF
:1023C000F0912B0320E030E0A0E0B0E0309719F16D
:1023D000408151810281138148175907C8F0841741
:1023E000950769F4109731F012960C931297139693
:1023F0001C9327C000932A0310932B0322C021159E
:10240000310519F04217530718F49A01BD01EF0185
:10241000DF01F801DBCF21153105F9F0281B390B5D
:102420002430310580F48A819B816115710521F08A
:10243000FB019383828304C090932B0380932A0330
:10244000FE01329644C0FE01E20FF31F8193919387
:1024500022503109398328833AC0209128033091D2
:102460002903232B41F4209102023091030230937F
:1024700029032093280320910002309101022115A5
:10248000310541F42DB73EB7409104025091050249
:10249000241B350BE0912803F0912903E217F30781
:1024A000A0F42E1B3F0B2817390778F0AC014E5FC4
:1024B0005F4F2417350748F04E0F5F1F50932903D5
:1024C000409328038193919302C0E0E0F0E0CF01B4
:1024D000DF91CF911F910F910895CF93DF930097D4
:1024E00009F481C0FC01329713821282A0912A0361
:1024F000B0912B03109781F420813181820F931FBB
:1025000020912803309129032817390751F5F093BA
:102510002903E093280367C0ED0120E030E0CE17E7
:10252000DF0740F44A815B819E0141155105F1F0BE
:10253000EA01F5CFD383C28340815181840F951F77
:10254000C817D90759F488819981840F951F02967D
:10255000918380838A819B819383828321153105B6
:1025600029F4F0932B03E0932A033DC0E901FB8398
:10257000EA8349915991C40FD51FEC17FD0761F407
:1025800080819181840F951F0296E9019983888348
:10259000828193819B838A83E0E0F0E012968D91A3
:1025A0009C911397009719F0FD01DC01F7CF8D91F5
:1025B0009C9111979D012E5F3F4F820F931F209199
:1025C0002803309129032817390769F4309729F433
:1025D00010922B0310922A0302C013821282B0932E
:1025E0002903A0932803DF91CF9108956F927F92E2
:1025F0008F929F92AF92BF92CF92DF92EF92FF9213
:102600000F931F93CF93DF93009789F4CB01DF9152
:10261000CF911F910F91FF90EF90DF90CF90BF90DF
:10262000AF909F908F907F906F900C94D511FC018C
:10263000E60FF71F9C0122503109E217F30708F457
:10264000A9C0EC01D9010D911C911197061717072C
:10265000B0F00530110508F49BC0C8010497861737
:10266000970708F495C002501109061B170B019338
:1026700011936D937C93CF010E946D1289C05B0111
:10268000A01AB10A4C01800E911EA0912A03B091AC
:102690002B03612C712CE12CF12C109709F446C00E
:1026A0008D919C911197A815B905B1F56C0142E087
:1026B000C40ED11CCA14DB0478F14C018A189B08A3
:1026C000640142E0C40ED11C1296BC90129713967E
:1026D000AC91B5E0CB16D10440F0B282A3839182D5
:1026E0008082D9016D937C9309C00E5F1F4F800FCC
:1026F000911FF90191838083EB2DFA2FE114F104EE
:1027000031F0D7011396FC93EE93129741C0F093EA
:102710002B03E0932A033CC06816790608F43C01B9
:102720007D0112960D90BC91A02DB7CF809128030A
:102730009091290388169906E1F466167706C8F485
:102740008091000290910102009741F48DB79EB7ED
:102750004091040250910502841B950BE817F9077C
:10276000C8F4F0932903E0932803F901718360838F
:102770000FC0CB010E94D5117C01009759F0A80130
:10278000BE010E94E013CE010E946D12C70104C079
:10279000CE0102C080E090E0DF91CF911F910F91B8
:1027A000FF90EF90DF90CF90BF90AF909F908F9071
:1027B0007F906F90089581E090E0F8940C940A1453
:1027C000FB01DC0102C001900D9241505040D8F74E
:1027D0000895FB01DC0101900D920020E1F70895BE
:1027E000FB0151915523A9F0BF01DC014D91451723
:1027F0004111E1F759F4CD010190002049F04D91CC
:1028000040154111C9F3FB014111EFCF81E090E088
:0828100001970895F894FFCF31
:1028180000002C0380000000000011027B01A801C9
:102828005E02D901B701CB0174656D704328002998
:10283800002C0074656D7046280068756D696469C0
:1028480074792800736F696C4D6F6973747572655C
:1028580028006D6F6973743A200077617465722877
:10286800000D0A006E616E00696E66006F76660084
:102878003C41726475696E6F20697320726561648A
:04288800793E000095
:00000001FF
