:100000000C947B010C94AC010C94AC010C94AC01ED
:100010000C94AC010C94AC010C94AC010C94AC01AC
:100020000C94AC010C94AC010C94AC010C94AC019C
:100030000C94AC010C94AC010C94AC010C94AC018C
:100040000C94AC010C94AC010C94AC010C94AC017C
:100050000C94AC010C94AC010C94AC010C949C0D70
:100060000C94AC010C9427020C945B0F0C94AC0123
:100070000C94AC010C94AC010C94AC010C94AC014C
:100080000C94AC010C94AC010C94AC010C94AC013C
:100090000C94AC010C94AC010C94AC010C94AC012C
:1000A0000C94AC010C94AC010C94AC010C94AC011C
:1000B0000C94AC010C94AC010C94AC010C94AC010C
:1000C0000C94AC010C94AC010C94AC010C94AC01FC
:1000D0000C94AC010C94AC010C94AC010C94AC01EC
:1000E0000C94AC0107090C0911091D092909B6096D
:1000F00035093D09450951095D0969097A098609EA
:10010000B60992099E09AA09F50BF80BE70BEB0B50
:10011000EF0B2F0CFC0B000C060C0A0C0E0C140C35
:10012000180C1C0C2F0C220C260C2A0C0C94140CF2
:100130000C9445090C940A0C0C94C0010C943D09D4
:100140000C9435090C94F80B0C941D090C942A0C92
:100150000C9407090C9451090C94180C0C94060C7F
:100160000C94E2010C947A090C94850F0C94CC0247
:100170000C949E090C942F0C0C945D090C94860928
:100180000C94EB0B0C940C090C94B6090C940E0C0B
:100190000C9411090C94F50B0C9429090C94000C87
:1001A0000C94EF0B0C94FC0B0C94220C0C940A0A8C
:1001B0000C94B1010C94E70B0C941C0C0C94690981
:1001C0000C94D4010C947F020C94AA090C94260C74
:1001D0000C94920900002100240027002A002D0021
:1001E0003000330001010000040107010A01000092
:1001F0002200250028002B002E00310034000201CF
:100200000000050108010B0100000A0B02090C0D9A
:100210000E080703040100000000000000000000B9
:1002200000000000000000000000000000000000CE
:10023000000000001211100000000000000000008B
:1002400000000000000000000000000000000000AE
:1002500020002300260029002C002F00320000017E
:100260000000030106010901050505050705080849
:100270000808020202020A0A080804040404010130
:100280000101010101010303030303030303040745
:1002900007070C0C0C0C0C0C0C0C020202020606DC
:1002A0000606060606060B0B0B0B0B0B0B0B0102CF
:1002B0001020200808102040102040800201020178
:1002C0000804020101020408102040808040201030
:1002D0000804020180040201804020100804020189
:1002E00008040201010204081020408001020408F1
:1002F00010204080850F11241FBECFEFD1E2DEBF5A
:10030000CDBF00E00CBF12E0A0E0B2E0E0E2FBE213
:1003100000E00BBF02C007900D92A83BB107D9F7D0
:1003200023E0A8EBB2E001C01D92A037B207E1F7CD
:1003300011E0CBE7D1E000E006C021970109802F52
:10034000FE010E943212CA37D10780E00807A9F7E0
:100350000E94B40F0C948E150C94000080E090E085
:100360000895FC01538D448D252F30E0842F90E0BB
:10037000821B930B541710F0CF96089501970895A0
:10038000FC01918D828D981761F0828DDF01A80F9D
:10039000B11D5D968C91928D9F5F9F73928F90E0BF
:1003A00008958FEF9FEF0895FC01918D828D98172E
:1003B00031F0828DE80FF11D858D90E008958FEF6B
:1003C0009FEF0895FC01918D228D892F90E0805C34
:1003D0009F4F821B91098F739927089580E090E0C9
:1003E000892B21F00E94340A811125C080E090E021
:1003F000892B41F080E090E0892B21F00E940000E1
:1004000081111CC080E090E0892B41F080E090E0F9
:10041000892B21F00E940000811113C080E090E040
:10042000892BA1F080E090E0892B81F00E940000F0
:1004300081110AC008950E940000D8CF0E940000D8
:10044000E1CF0E940000EACF0C94000008951F92B3
:100450000F920FB60F9211240BB60F922F938F931A
:100460009F93EF93FF93E091C802F091C9028081BE
:10047000E091CE02F091CF0282FD12C09081809176
:10048000D1028F5F8F732091D202821751F0E091D9
:10049000D102F0E0E854FD4F958F8093D10201C066
:1004A0008081FF91EF919F918F912F910F900BBEC3
:1004B0000F900FBE0F901F901895FC01848DDF01E7
:1004C000A80FB11DA35ABF4F2C91848D90E00196C7
:1004D0008F739927848FA689B7892C93A089B189B6
:1004E0008C91837080648C93938D848D981306C057
:1004F0000288F389E02D80818F7D80830895EF92BB
:10050000FF920F931F93CF93DF93EC0181E0888FCD
:100510009B8D8C8D981305C0E889F989808185FDB4
:1005200026C0F62E0B8D10E00F5F1F4F0F731127A3
:10053000E02E8C8DE8120CC00FB607FCFACFE889CC
:10054000F989808185FFF5CFCE010E945D02F1CF50
:100550008B8DFE01E80FF11DE35AFF4FF0829FB72C
:10056000F8940B8FEA89FB89808180620AC09FB76B
:10057000F894EE89FF896083E889F9898081837026
:10058000806480839FBF81E090E0DF91CF911F91D5
:100590000F91FF90EF900895CF93DF93EC01888D3A
:1005A0008823C9F0EA89FB89808185FD05C0A88977
:1005B000B9898C9186FD0FC00FB607FCF5CF8081FD
:1005C00085FFF2CFA889B9898C9185FFEDCFCE0147
:1005D0000E945D02E7CFDF91CF9108954F925F9225
:1005E0006F927F928F929F92AF92BF92DF92EF9223
:1005F000FF920F931F93CF93DF93CDB7DEB768972A
:100600000FB6F894DEBF0FBECDBF84E6882E912CC6
:10061000A12CB12C88EB92E00E94E201892B09F415
:10062000BDC660E272E0CE0107960E94E20E0E9413
:10063000860B97FD1EC08D309105D9F089831A82F3
:100640000B851C850F5F1F4FB801CE0107960E94D6
:100650008B0E882361F32F8138858B859C85BE01A5
:100660006F5F7F4F820F931F0E946D151C870B8752
:10067000DECF88E192E00E94400A4B855C856F8165
:10068000788588EB92E00E940A0A8EE192E00E944F
:10069000400A61E272E0CE0101960E94E20EBE01C4
:1006A0006F5F7F4FCE0107960E94600A8C01CE01DA
:1006B00001960E94DD0E17FD87C06BE272E0CE014D
:1006C00043960E94E20EBE016D5E7F4FCE010796FB
:1006D0000E94600A8C0169E272E0CE010D960E94D0
:1006E000E20EBE01635F7F4FCE0107960E94600A53
:1006F000AC014F5F5F4F9801BE01695F7F4FCE0134
:1007000001960E94F70ECE010D960E94DD0ECE01DD
:1007100043960E94DD0ECE0101960E94F10D6DE21E
:1007200072E0CE010D960E94E20EBE01635F7F4F24
:10073000CE0101960E94600A9C0140E050E0BE019B
:100740006F5F7F4FCE0143960E94F70ECE01439616
:100750000E94E60D162FCE0143960E94DD0ECE01BB
:100760000D960E94DD0E812F0E94BA0C4090550319
:1007700050905603609057037090580320E030E08B
:1007800048EC52E4C301B2010E944F1318165CF307
:1007900020E030E0A901C301B2010E94BB1087FD37
:1007A000E2CF4090590350905A0360905B037090E1
:1007B0005C0320E030E048EC52ECC301B2010E943F
:1007C000BB1087FDD0CF4DC16FE272E0CE01019624
:1007D0000E94E20EBE016F5F7F4FCE0107960E941E
:1007E000600A8C01CE0101960E94DD0E17FDA1C0AA
:1007F0006BE272E0CE0143960E94E20EBE016D5E96
:100800007F4FCE0107960E94600A8C0169E272E078
:10081000CE010D960E94E20EBE01635F7F4FCE01B6
:1008200007960E94600AAC014F5F5F4F9801BE01BE
:10083000695F7F4FCE0101960E94F70ECE010D96A3
:100840000E94DD0ECE0143960E94DD0ECE01019680
:100850000E94F10D6DE272E0CE010D960E94E20E53
:10086000BE01635F7F4FCE0101960E94600A9C012A
:1008700040E050E0BE016F5F7F4FCE0143960E9483
:10088000F70ECE0143960E94E60D162FCE01439639
:100890000E94DD0ECE010D960E94DD0E812F0E947A
:1008A000BA0C4090550350905603609057037090D7
:1008B000580320E030E048EC52E4C301B2010E944A
:1008C0004F1318165CF320E030E0A901C301B20118
:1008D0000E94BB1087FDE2CF4090590350905A030D
:1008E00060905B0370905C0320E030E048EC52ECD9
:1008F000C301B2010E94BB1087FDD0CF20E030E0E1
:1009000040E151E4C301B2010E94211120E030E036
:1009100040EA50E40E94AE1220E030E040E052E4B1
:100920000E9442120E94BB0ACE0101960E94DD0E77
:1009300030C569E372E0CE0101960E94E20EBE016D
:100940006F5F7F4FCE0107960E94600A8C01CE0137
:1009500001960E94DD0E17FD87C06BE272E0CE01AA
:1009600043960E94E20EBE016D5E7F4FCE01079658
:100970000E94600A8C0169E272E0CE010D960E942D
:10098000E20EBE01635F7F4FCE0107960E94600AB0
:10099000AC014F5F5F4F9801BE01695F7F4FCE0191
:1009A00001960E94F70ECE010D960E94DD0ECE013B
:1009B00043960E94DD0ECE0101960E94F10D6DE27C
:1009C00072E0CE010D960E94E20EBE01635F7F4F82
:1009D000CE0101960E94600A9C0140E050E0BE01F9
:1009E0006F5F7F4FCE0143960E94F70ECE01439674
:1009F0000E94E60D162FCE0143960E94DD0ECE0119
:100A00000D960E94DD0E812F0E94BA0C4090550376
:100A100050905603609057037090580320E030E0E8
:100A200048EC52E4C301B2010E944F1318165CF364
:100A300020E030E0A901C301B2010E94BB1087FD94
:100A4000E2CF20E030E048EC52EC60915903709125
:100A50005A0380915B0390915C030E94BB1087FD59
:100A6000D2CFC301B2015ECF66E472E0CE0101963F
:100A70000E94E20EBE016F5F7F4FCE0107960E947B
:100A8000600A8C01CE0101960E94DD0E17FDE5C0C3
:100A90006BE272E0CE0143960E94E20EBE016D5EF3
:100AA0007F4FCE0107960E94600A8C0169E272E0D6
:100AB000CE010D960E94E20EBE01635F7F4FCE0114
:100AC00007960E94600AAC014F5F5F4F9801BE011C
:100AD000695F7F4FCE0101960E94F70ECE010D9601
:100AE0000E94DD0ECE0143960E94DD0ECE010196DE
:100AF0000E94F10D6DE272E0CE010D960E94E20EB1
:100B0000BE01635F7F4FCE0101960E94600A9C0187
:100B100040E050E0BE016F5F7F4FCE0143960E94E0
:100B2000F70ECE0143960E94E60D162FCE01439696
:100B30000E94DD0ECE010D960E94DD0E6DE272E088
:100B4000CE010D960E94E20EBE01635F7F4FCE0183
:100B500001960E94600A2D813E81AC014F5F5F4F7C
:100B6000BE016F5F7F4FCE0143960E94F70EBE011C
:100B70006D5E7F4FCE0101960E94510ECE014396CD
:100B80000E94DD0ECE010D960E94DD0ECE01019673
:100B90000E94F10D6DE272E0CE010D960E94E20E10
:100BA000BE01635F7F4FCE0101960E94600A9C01E7
:100BB00040E050E0BE016F5F7F4FCE0143960E9440
:100BC000F70ECE0143960E94E60D062FCE01439606
:100BD0000E94DD0ECE010D960E94DD0E61E0802F99
:100BE0000E94440C61E0802F0E94C60B68EC70E00C
:100BF00080E090E00E94800C612F163308F066536D
:100C000080917B00962F9870877F892B80937B0043
:100C10006770606460937C0080917A008064809348
:100C20007A0080917A0086FDFCCF10917800F090D8
:100C3000790068EC70E080E090E00E94800C60E059
:100C4000802F0E94C60B612F70E07F29072E000CB9
:100C5000880B990B0E94C21065CE60E572E0CE0150
:100C600001960E94E20EBE016F5F7F4FCE01079694
:100C70000E94600A8C01CE0101960E94DD0E17FDD4
:100C80001CC16BE272E0CE0143960E94E20EBE01EF
:100C90006D5E7F4FCE0107960E94600A8C0169E26B
:100CA00072E0CE010D960E94E20EBE01635F7F4F9F
:100CB000CE0107960E94600AAC014F5F5F4F98011A
:100CC000BE01695F7F4FCE0101960E94F70ECE01F3
:100CD0000D960E94DD0ECE0143960E94DD0ECE01E0
:100CE00001960E94F10D6DE272E0CE010D960E9418
:100CF000E20EBE01635F7F4FCE0101960E94600A43
:100D00009C0140E050E0BE016F5F7F4FCE014396F3
:100D10000E94F70ECE0143960E94E60D162FCE01DB
:100D200043960E94DD0ECE010D960E94DD0E6DE20F
:100D300072E0CE010D960E94E20EBE01635F7F4F0E
:100D4000CE0101960E94600A2D813E81AC014F5F69
:100D50005F4FBE016F5F7F4FCE0143960E94F70E3B
:100D6000BE016D5E7F4FCE0101960E94510ECE01F5
:100D700043960E94DD0ECE010D960E94DD0ECE013F
:100D800001960E94F10D6DE272E0CE010D960E9477
:100D9000E20EBE01635F7F4FCE0101960E94600AA2
:100DA0009C0140E050E0BE016F5F7F4FCE01439653
:100DB0000E94F70ECE0143960E94E60D062FCE014B
:100DC00043960E94DD0ECE010D960E94DD0E6DE26F
:100DD00072E0CE010D960E94E20EBE01635F7F4F6E
:100DE000CE0101960E94600A2D813E81AC014F5FC9
:100DF0005F4FBE016F5F7F4FCE0143960E94F70E9B
:100E0000BE016D5E7F4FCE0101960E94510ECE0154
:100E100043960E94DD0ECE010D960E94DD0ECE019E
:100E200001960E94F10D6DE272E0CE010D960E94D6
:100E3000E20EBE01635F7F4FCE0101960E94600A01
:100E40009C0140E050E0BE016F5F7F4FCE014396B2
:100E50000E94F70ECE0143960E94E60D2B013C0145
:100E6000CE0143960E94DD0ECE010D960E94DD0E4E
:100E700061E0812F0E94440C61E0802F0E94440CAD
:100E800061E0812F0E94C60B60E0802F0E94C60B9C
:100E9000B201550C880B990B0E94800C60E0812FE9
:100EA0000E94C60B4AE060E070E0CB010E947A0A23
:100EB0008EE192E00E94400A37CD67E572E0CE01F4
:100EC00001960E94E20EBE016F5F7F4FCE01079632
:100ED0000E94600A8C01CE0101960E94DD0E17FD72
:100EE00052C06BE272E0CE0143960E94E20EBE0158
:100EF0006D5E7F4FCE0107960E94600A8C0169E209
:100F000072E0CE010D960E94E20EBE01635F7F4F3C
:100F1000CE0107960E94600AAC014F5F5F4F9801B7
:100F2000BE01695F7F4FCE0101960E94F70ECE0190
:100F30000D960E94DD0ECE0143960E94DD0ECE017D
:100F400001960E94F10D6DE272E0CE010D960E94B5
:100F5000E20EBE01635F7F4FCE0101960E94600AE0
:100F60009C0140E050E0BE016F5F7F4FCE01439691
:100F70000E94F70ECE0143960E94DD0ECE010D9623
:100F80000E94DD0EFDC168E672E0CE0101960E946E
:100F9000E20EBE016F5F7F4FCE0107960E94600A8E
:100FA0008C01CE0101960E94DD0E17FDEEC16BE2B1
:100FB00072E0CE0143960E94E20EBE016D5E7F4F4D
:100FC000CE0107960E94600A8C0169E272E0CE01B0
:100FD0000D960E94E20EBE01635F7F4FCE01079621
:100FE0000E94600AAC014F5F5F4F9801BE01695FCC
:100FF0007F4FCE0101960E94F70ECE010D960E9402
:10100000DD0ECE0143960E94DD0ECE0101960E94B8
:10101000F10D6DE272E0CE010D960E94E20EBE016E
:10102000635F7F4FCE0101960E94600A9C0140E001
:1010300050E0BE016F5F7F4FCE0143960E94F70ED6
:10104000CE0143960E94E60DD62ECE0143960E9415
:10105000DD0ECE010D960E94DD0E6DE272E0CE0136
:101060000D960E94E20EBE01635F7F4FCE01019696
:101070000E94600A2D813E81AC014F5F5F4FBE012F
:101080006F5F7F4FCE0143960E94F70EBE016D5EEB
:101090007F4FCE0101960E94510ECE0143960E94D1
:1010A000DD0ECE010D960E94DD0ECE0101960E944E
:1010B000F10D6DE272E0CE010D960E94E20EBE01CE
:1010C000635F7F4FCE0101960E94600A9C0140E061
:1010D00050E0BE016F5F7F4FCE0143960E94F70E36
:1010E000CE0143960E94E60D162FCE0143960E9434
:1010F000DD0ECE010D960E94DD0E6DE272E0CE0196
:101100000D960E94E20EBE01635F7F4FCE010196F5
:101110000E94600A2D813E81AC014F5F5F4FBE018E
:101120006F5F7F4FCE0143960E94F70EBE016D5E4A
:101130007F4FCE0101960E94510ECE0143960E9430
:10114000DD0ECE010D960E94DD0ECE0101960E94AD
:10115000F10D6DE272E0CE010D960E94E20EBE012D
:10116000635F7F4FCE0101960E94600A9C0140E0C0
:1011700050E0BE016F5F7F4FCE0143960E94F70E95
:10118000CE0143960E94E60D2B013C01CE01439611
:101190000E94DD0ECE010D960E94DD0E61E08D2DC8
:1011A0000E94440C61E0812F0E94440C60E0812F7A
:1011B0000E94C60BD2012FEF30E00E943A12A50127
:1011C00094010E94E211122F032FE22EF32E61E010
:1011D0008D2D0E94440CE114F10409F4CBC08FEF73
:1011E000E816F10409F4C8C0ED2DF0E0E85FFD4F0A
:1011F000E4918E2F90E0FC013197E231F10508F087
:10120000B5C08827EE58FF4F8F4F0C94321284B52B
:10121000806884BD17BDB4C084B5806284BD18BD2C
:10122000AFC080918000806880938000812F902FD4
:101230009093890080938800A3C080918000806291
:1012400080938000812F902F90938B0080938A0051
:1012500097C080918000886080938000812F902FBC
:1012600090938D0080938C008BC08091B00080683B
:101270008093B0001093B30083C08091B00080626F
:101280008093B0001093B4007BC080919000806880
:1012900080939000812F902F9093990080939800D5
:1012A0006FC080919000806280939000812F902F7A
:1012B00090939B0080939A0063C080919000886017
:1012C00080939000812F902F90939D0080939C009D
:1012D00057C08091A00080688093A0008091A000FA
:1012E0008F7B8093A000812F902F9093A9008093F3
:1012F000A80046C08091A00080628093A000812F4A
:10130000902F9093AB008093AA003AC08091A000E8
:1013100088608093A000812F902F9093AD008093E0
:10132000AC002EC080912001806880932001812F25
:10133000902F909329018093280122C08091200151
:10134000806280932001812F902F90932B018093B6
:101350002A0116C080912001886080932001812F8E
:10136000902F90932D0180932C010AC080E8E816FD
:10137000F10414F460E001C061E08D2D0E94C60B01
:1013800086E692E00E94520ACFCA8BE792E00E9462
:10139000520ACE0107960E94DD0E3CC968960FB630
:1013A000F894DEBF0FBECDBFDF91CF911F910F919B
:1013B000FF90EF90DF90BF90AF909F908F907F90C5
:1013C0006F905F904F9008953FB7F89480916403B9
:1013D00090916503A0916603B091670326B5A89B21
:1013E00005C02F3F19F00196A11DB11D3FBFBA2FB7
:1013F000A92F982F8827820F911DA11DB11DBC0117
:10140000CD0142E0660F771F881F991F4A95D1F7DB
:1014100008950895CF92DF92EF92FF920F931F935A
:10142000CF93DF936C017A018B01C0E0D0E0CE1541
:10143000DF0581F0D8016D918D01D601ED91FC9110
:101440000190F081E02DC6011995892B11F02196AC
:10145000EECF7E01C701DF91CF911F910F91FF90D9
:10146000EF90DF90CF90089588EB92E00E94E20128
:1014700021E0892B09F420E0822F08950E945F1556
:10148000009769F0FC0101900020E9F73197AF0166
:10149000481B590BBC0188EB92E00C940A0A80E0CF
:1014A00090E00895CF93DF930E94400AEC018EE113
:1014B00092E00E94400A8C0F9D1FDF91CF9108950A
:1014C000CF93DF93FC0124813581232B71F0FB0145
:1014D000DC01CD91DC9160817181CE010E94741597
:1014E000009719F08C1B9D0B02C08FEF9FEFDF91CF
:1014F000CF9108958F929F92AF92BF920F931F93B7
:10150000CF93DF93CDB7DEB7A1970FB6F894DEBFC8
:101510000FBECDBF19A2423008F44AE08E010F5D24
:101520001F4F842E912CA12CB12CA50194010E9457
:101530000112E62FB901CA0101501109EA3014F471
:10154000E05D01C0E95CD801EC93232B242B252B13
:1015500061F7C8010E94400AA1960FB6F894DEBF59
:101560000FBECDBFDF91CF911F910F91BF90AF9074
:101570009F908F9008954F925F926F927F928F927B
:101580009F92AF92BF92CF92DF92EF92FF926B0148
:101590007C019B01AC010E945413882319F08BE954
:1015A00092E01AC046015701E894B7F82FEF3FEFD9
:1015B0004FE75FE7C501B4010E945413811110C0C9
:1015C0002FEF3FEF4FE75FE7C501B4010E94BB106B
:1015D000181634F48FE992E00E94400A7C0183C01F
:1015E0002FEF3FEF4FE75FE4C701B6010E944F13B3
:1015F00018161CF483EA92E0EFCF2FEF3FEF4FE78E
:101600005FECC701B6010E94BB1087FDF3CF20E05D
:1016100030E0A901C701B6010E94BB1087FF0BC0D3
:101620006DE288EB92E00E947F025C01F7FAF09491
:10163000F7F8F09402C0A12CB12C2AE037ED43EA70
:101640005BE3C701B6010E9442122B013C010E94DC
:1016500020136B017C010E94C0109B01AC01C301EF
:10166000B2010E9441122B013C014AE0C701B601C0
:101670000E947A0A7C01EA0CFB1C6EE288EB92E085
:101680000E947F02E80EF91E20E030E040E251E4C3
:10169000C301B2010E9421112B013C010E942013C1
:1016A0004B01A12CB12C4AE0C501B4010E947A0A79
:1016B000E80EF91EC501B4010E94C0109B01AC01E7
:1016C000C301B2010E94411220E030E040E251E447
:1016D0000E9421110E94201380E090E04AE00E94C5
:1016E0007A0AE80EF91E8EE192E00E94400A8E0D01
:1016F0009F1DFF90EF90DF90CF90BF90AF909F9095
:101700008F907F906F905F904F9008952FB7F894CF
:101710008091680390916903A0916A03B0916B0373
:101720002FBF8093C0029093C102A093C202B093D6
:10173000C30288EB92E00E94C00197FF26C02FB73A
:10174000F8948091680390916903A0916A03B09125
:101750006B032FBF4091C0025091C1026091C20241
:101760007091C302841B950BA60BB70B4091BC0272
:101770005091BD026091BE027091BF02841795071F
:10178000A607B707B0F28FEF9FEF0895362F90E0CE
:10179000FC01E85FFD4F4491FC01E255FD4F2491AF
:1017A000FC01E859FD4F9491992309F46CC044233E
:1017B00009F455C050E0FA013197E231F10508F023
:1017C0004EC08827EC57FF4F8F4F0C9432128091F8
:1017D00080008F7707C0809180008F7D03C080914B
:1017E0008000877F809380003AC084B58F7702C0E5
:1017F00084B58F7D84BD33C08091B0008F7703C0E6
:101800008091B0008F7D8093B00029C080919000BE
:101810008F7707C0809190008F7D03C080919000EA
:10182000877F809390001BC08091A0008F7707C0B6
:101830008091A0008F7D03C08091A000877F80935E
:10184000A0000DC0809120018F7707C080912001FA
:101850008F7D03C080912001877F80932001E92F35
:10186000F0E0EE0FFF1FE251FE4FA591B4919FB73C
:10187000F894311104C08C912095282302C0EC917A
:101880002E2B2C939FBF0895CF93DF9390E0FC0104
:10189000E255FD4F2491FC01E859FD4F84918823C6
:1018A00061F190E0880F991FFC01EC52FE4FC59149
:1018B000D491FC01E251FE4FA591B491611109C090
:1018C0009FB7F8948881209582238883EC912E23FA
:1018D0000BC0623061F49FB7F8948881322F309545
:1018E00083238883EC912E2B2C939FBF06C08FB748
:1018F000F894E8812E2B28838FBFDF91CF91089534
:101900008F929F92AF92BF92CF92DF92EF92FF920F
:101910006B017C010E94E4094B015C01C114D104FC
:10192000E104F104F1F00E94E409DC01CB01881923
:101930009909AA09BB09883E9340A105B10570F336
:1019400021E0C21AD108E108F10888EE880E83E090
:10195000981EA11CB11CC114D104E104F10419F7B3
:10196000DDCFFF90EF90DF90CF90BF90AF909F9032
:101970008F9008957F928F929F92AF92BF92CF9255
:10198000DF92EF92FF920F931F93CF93DF93D82FA5
:1019900080916203882309F0F8948D2F90E0FC0178
:1019A000E255FD4F7490FC01E859FD4FE491F0E0E1
:1019B000EE0FFF1FE25BFD4F0591149161E08D2F4B
:1019C0000E94440C60E08D2F0E94C60B62E170E023
:1019D00080E090E00E94800C60E08D2F0E94440C1B
:1019E00080E293E0E8012881272121F00197D1F7D7
:1019F0001DEF5DC080E991E0F8012081272121F4ED
:101A00000197D1F71CEF53C080E991E0E8012881EC
:101A1000272121F00197D1F71BEF49C0A0E060E03A
:101A200040E820E030E080E991E0E0E9F1E0B0E07A
:101A300078E250E9852E99249394A12CB12CE801E9
:101A40005881572161F5BB2351F1783299F48E17F3
:101A50009F0708F4FC0175016401CE1ADF0AE10852
:101A6000F10882E0F594E794D794C7948A95D1F76A
:101A7000960107C07F01E21AF30AE816F90608F09A
:101A8000642B469549F48A2F90E08B5A9C4FEC01C9
:101A90006887AF5F60E040E8715080E991E00197AE
:101AA00029F0B52F7111CBCF10E001C01EEF80914E
:101AB0006203882309F07894D0915D03DF77D09397
:101AC0005D03C0915F03CF77C0935F036D2F70E01C
:101AD00080E090E00E94C01060935503709356031D
:101AE00080935703909358036C2F70E080E090E050
:101AF0000E94C0106093590370935A0380935B0354
:101B000090935C0390915E0380916003890FD80FDE
:101B1000CD0F80916103C8131FEF812FDF91CF910B
:101B20001F910F91FF90EF90DF90CF90BF90AF90FB
:101B30009F908F907F9008951F920F920FB60F92F3
:101B400011242F933F938F939F93AF93BF938091D3
:101B5000680390916903A0916A03B0916B0330917F
:101B6000630323E0230F2D3720F40196A11DB11D3F
:101B700005C026E8230F0296A11DB11D2093630323
:101B80008093680390936903A0936A03B0936B03F7
:101B90008091640390916503A0916603B0916703FF
:101BA0000196A11DB11D8093640390936503A093DA
:101BB0006603B0936703BF91AF919F918F913F915F
:101BC0002F910F900FBE0F901F901895FC018081F0
:101BD0009181009711F00C94761060E070E0CB01D9
:101BE0000895AF92BF92CF92DF92EF92FF920F9340
:101BF0001F93CF93DF93DC01CD90DC901197C1143C
:101C0000D10409F443C01496CD91DC911597209727
:101C1000E9F18C0176015701BFEFAB1ABB0AF7015E
:101C20008081082E000C990B0E94B210892B11F0B4
:101C30007501F1CF2197CC0DDD1D8881082E000C98
:101C4000990B0E94B210892B29F0CE15DF0510F0F8
:101C50002197F3CFAE014F5F5F4F4E195F09D80157
:101C600015965C934E931497CE14DF0420F4B701BD
:101C7000C6010E946415D801ED91FC91119714964C
:101C80008D919C911597E80FF91F1082DF91CF91EC
:101C90001F910F91FF90EF90DF90CF90BF90AF908A
:101CA00008950F931F93CF93DF938C01EB01FC01F9
:101CB00080819181009739F0688179816115710582
:101CC000A1F40E94F11388819981F80191838083A6
:101CD0008A819B81938382838C819D819583848378
:101CE000198218821B821A820FC0F8014281538127
:101CF0002C813D814217530720F30E946D158C8182
:101D00009D81F801958384831D821C82DF91CF9190
:101D10001F910F9108950F931F93CF93DF93EC01C1
:101D200088819981009729F02A813B8126173707FE
:101D300088F48B016F5F7F4F0E947A14009761F0E7
:101D4000998388831B830A832C813D81232B11F483
:101D5000FC01108281E001C080E0DF91CF911F91F2
:101D60000F910895EF92FF920F931F93CF93DF93FC
:101D7000EC017B018A01BA010E948B0E2881398116
:101D800081110DC02115310519F0C9010E94F1130F
:101D9000198218821D821C821B821A8206C01D8332
:101DA0000C83B701C9010E946D15CE01DF91CF915F
:101DB0001F910F91FF90EF900895FC018081918118
:101DC0000C94F113FC01118210821382128215828D
:101DD00014826115710551F0FB0101900020E9F7B3
:101DE0003197AF01461B570B0C94B20E0895BF926A
:101DF000CF92DF92EF92FF920F931F93CF93DF93D7
:101E00007C016B01EA0189012417350720F48D2F2D
:101E1000E901042F182F60E272E0C7010E94E20E70
:101E2000D60114968D919C911597C817D907C0F5C6
:101E30008017910708F48C01D601ED91FC91119760
:101E4000E00FF11FB08010826D917C916C0F7D1FAF
:101E50006115710561F0FB0101900020E9F73197F0
:101E6000AF01461B570BC7010E94B20E13C0F7010A
:101E700080819181009711F00E94F113D701119692
:101E80001C921E9215961C921E92149713961C92E9
:101E90001E921297D601ED91FC91E00FF11FB082D6
:101EA000C701DF91CF911F910F91FF90EF90DF90CD
:101EB000CF90BF9008951F920F920FB60F921124EA
:101EC0000BB60F922F933F934F935F936F937F9334
:101ED0008F939F93AF93BF93EF93FF9388EB92E021
:101EE0000E945D02FF91EF91BF91AF919F918F9101
:101EF0007F916F915F914F913F912F910F900BBE0A
:101F00000F900FBE0F901F901895E8EBF2E0138230
:101F1000128288EE93E0A0E0B0E084839583A683EC
:101F2000B7838AE092E09183808385EC90E0958787
:101F3000848784EC90E09787868780EC90E0918B93
:101F4000808B81EC90E0938B828B82EC90E0958B80
:101F5000848B86EC90E0978B868B118E128E138E7D
:101F6000148E109262030895789484B5826084BDC3
:101F700084B5816084BD85B5826085BD85B581608D
:101F800085BD80916E00816080936E00109281000B
:101F900080918100826080938100809181008160C6
:101FA0008093810080918000816080938000809187
:101FB000B10084608093B1008091B0008160809313
:101FC000B000809191008260809391008091910097
:101FD0008160809391008091900081608093900057
:101FE0008091A10082608093A1008091A100816016
:101FF0008093A1008091A00081608093A0008091D7
:102000002101826080932101809121018160809370
:1020100021018091200181608093200180917A00CC
:10202000846080937A0080917A00826080937A0045
:1020300080917A00816080937A0080917A00806834
:1020400080937A001092C100E091C802F091C90219
:1020500082E08083E091C402F091C5021082E09199
:10206000C602F091C70280E180831092D002E09115
:10207000CC02F091CD0286E08083E091CA02F0911B
:10208000CB02808180618083E091CA02F091CB0213
:10209000808188608083E091CA02F091CB028081C8
:1020A00080688083E091CA02F091CB0280818F7DAD
:1020B000808387EA92E00E94520A80ED97E0A0E0D8
:1020C000B0E08093BC029093BD02A093BE02B09397
:1020D000BF0261E082E00E94440C60E082E00E9466
:1020E000C60B0E94EE020E94EE01FBCF1F93FC0183
:1020F00099278827BC01E89411911032E9F319302F
:1021000010F01E30C8F31B3251F01D3249F46894B0
:1021100006C00E949D10610F711D811D911D1191BE
:1021200010531A30B0F33EF49095809570956195F8
:102130007F4F8F4F9F4F1F910895592F482F372F53
:10214000262F660F771F881F991F660F771F881F1E
:10215000991F620F731F841F951F660F771F881FBB
:10216000991F089591110C948E11803219F08950A5
:102170008550C8F708950E94FD1008F481E0089585
:10218000E89409C097FB3EF4909580957095619511
:102190007F4F8F4F9F4F9923A9F0F92F96E9BB27C7
:1021A0009395F695879577956795B795F111F8CF43
:1021B000FAF4BB0F11F460FF1BC06F5F7F4F8F4FAE
:1021C0009F4F16C0882311F096E911C0772321F0A4
:1021D0009EE8872F762F05C0662371F096E8862F3C
:1021E00070E060E02AF09A95660F771F881FDAF793
:1021F000880F9695879597F90895990F0008550FC0
:10220000AA0BE0E8FEEF16161706E807F907C0F07C
:1022100012161306E407F50798F0621B730B840B84
:10222000950B39F40A2661F0232B242B252B21F45E
:1022300008950A2609F4A140A6958FEF811D811DFE
:1022400008950E9434110C94A8110E949A1138F03C
:102250000E94A11120F0952311F00C9491110C947F
:10226000971111240C94DC110E94B91170F3959F01
:10227000C1F3950F50E0551F629FF001729FBB277D
:10228000F00DB11D639FAA27F00DB11DAA1F649F19
:102290006627B00DA11D661F829F2227B00DA11DCC
:1022A000621F739FB00DA11D621F839FA00D611D52
:1022B000221F749F3327A00D611D231F849F600D73
:1022C000211D822F762F6A2F11249F5750409AF09C
:1022D000F1F088234AF0EE0FFF1FBB1F661F771F28
:1022E000881F91505040A9F79E3F510580F00C94F3
:1022F00091110C94DC115F3FE4F3983ED4F3869582
:1023000077956795B795F795E7959F5FC1F7FE2B92
:10231000880F911D9695879597F908959927882795
:10232000089597F99F6780E870E060E008959FEF57
:1023300080EC089500240A9416161706180609065C
:10234000089500240A94121613061406050608952B
:10235000092E0394000C11F4882352F0BB0F40F4B3
:10236000BF2B11F460FF04C06F5F7F4F8F4F9F4FF3
:10237000089557FD9058440F551F59F05F3F71F075
:102380004795880F97FB991F61F09F3F79F08795DC
:102390000895121613061406551FF2CF4695F1DF65
:1023A00008C0161617061806991FF1CF86957105F5
:1023B000610508940895E894BB2766277727CB0129
:1023C00097F90895052E97FB1EF400940E94F911C9
:1023D00057FD07D00E94011207FC03D04EF40C9465
:1023E000F91150954095309521953F4F4F4F5F4FD4
:1023F000089590958095709561957F4F8F4F9F4F71
:102400000895A1E21A2EAA1BBB1BFD010DC0AA1F35
:10241000BB1FEE1FFF1FA217B307E407F50720F04D
:10242000A21BB30BE40BF50B661F771F881F991FC8
:102430001A9469F760957095809590959B01AC0111
:10244000BD01CF010895A29FB001B39FC001A39F1A
:10245000700D811D1124911DB29F700D811D1124DD
:10246000911D0895EE0FFF1F881F8BBF0790F691F7
:10247000E02D19940E942312B7FF0895821B930B3D
:1024800008955058BB27AA270E9459120C94A811EE
:102490000E949A1138F00E94A11120F039F49F3F58
:1024A00019F426F40C9497110EF4E095E7FB0C94C4
:1024B0009111E92F0E94B91158F3BA1762077307F7
:1024C0008407950720F079F4A6F50C94DB110EF43F
:1024D000E0950B2EBA2FA02D0B01B90190010C0134
:1024E000CA01A0011124FF27591B99F0593F50F44C
:1024F000503E68F11A16F040A22F232F342F4427A4
:10250000585FF3CF469537952795A795F04053959B
:10251000C9F77EF41F16BA0B620B730B840BBAF06B
:102520009150A1F0FF0FBB1F661F771F881FC2F7D6
:102530000EC0BA0F621F731F841F48F487957795EA
:102540006795B795F7959E3F08F0B0CF9395880FA4
:1025500008F09927EE0F9795879508950E94C2126B
:102560000C94A8110E94A11158F00E949A1140F0F9
:1025700029F45F3F29F00C94911151110C94DC1156
:102580000C9497110E94B91168F39923B1F3552364
:1025900091F3951B550BBB27AA2762177307840776
:1025A00038F09F5F5F4F220F331F441FAA1FA9F30C
:1025B00035D00E2E3AF0E0E832D091505040E695FA
:1025C000001CCAF72BD0FE2F29D0660F771F881F5B
:1025D000BB1F261737074807AB07B0E809F0BB0B4E
:1025E000802DBF01FF2793585F4F3AF09E3F510562
:1025F00078F00C9491110C94DC115F3FE4F3983E59
:10260000D4F3869577956795B795F7959F5FC9F74A
:10261000880F911D9695879597F90895E1E0660FCB
:10262000771F881FBB1F621773078407BA0720F044
:10263000621B730B840BBA0BEE1F88F7E0950895AD
:102640000E94C11188F09F5798F0B92F9927B75170
:10265000B0F0E1F0660F771F881F991F1AF0BA9546
:10266000C9F714C0B13091F00E94DB11B1E00895B8
:102670000C94DB11672F782F8827B85F39F0B93FAA
:10268000CCF3869577956795B395D9F73EF49095F9
:102690008095709561957F4F8F4F9F4F08950E9451
:1026A000FD1008F48FEF08950E94FD10880B990B20
:1026B00008950F931F93CF93DF938230910510F409
:1026C00082E090E0E0916E03F0916F0320E030E053
:1026D000A0E0B0E0309719F140815181028113816F
:1026E00048175907C8F08417950769F4109731F017
:1026F00012960C93129713961C9327C000936E03A7
:1027000010936F0322C02115310519F042175307AA
:1027100018F49A01BD01EF01DF01F801DBCF2115AB
:102720003105F9F0281B390B2430310580F48A81FA
:102730009B816115710521F0FB019383828304C0A5
:1027400090936F0380936E03FE01329644C0FE01A6
:10275000E20FF31F8193919322503109398328832B
:102760003AC020916C0330916D03232B41F42091EA
:1027700002023091030230936D0320936C03209189
:102780000002309101022115310541F42DB73EB709
:102790004091040250910502241B350BE0916C031B
:1027A000F0916D03E217F307A0F42E1B3F0B2817DF
:1027B000390778F0AC014E5F5F4F2417350748F0BA
:1027C0004E0F5F1F50936D0340936C038193919361
:1027D00002C0E0E0F0E0CF01DF91CF911F910F91B7
:1027E0000895CF93DF93009709F481C0FC013297DD
:1027F00013821282A0916E03B0916F03109781F43F
:1028000020813181820F931F20916C0330916D03E1
:102810002817390751F5F0936D03E0936C0367C0F7
:10282000ED0120E030E0CE17DF0740F44A815B8104
:102830009E0141155105F1F0EA01F5CFD383C28322
:1028400040815181840F951FC817D90759F4888199
:102850009981840F951F0296918380838A819B8141
:10286000938382832115310529F4F0936F03E0935C
:102870006E033DC0E901FB83EA8349915991C40F7E
:10288000D51FEC17FD0761F480819181840F951F9E
:102890000296E90199838883828193819B838A834D
:1028A000E0E0F0E012968D919C911397009719F05B
:1028B000FD01DC01F7CF8D919C9111979D012E5F59
:1028C0003F4F820F931F20916C0330916D032817A7
:1028D000390769F4309729F410926F0310926E0350
:1028E00002C013821282B0936D03A0936C03DF9138
:1028F000CF9108956F927F928F929F92AF92BF92E5
:10290000CF92DF92EF92FF920F931F93CF93DF93BB
:10291000009789F4CB01DF91CF911F910F91FF9028
:10292000EF90DF90CF90BF90AF909F908F907F906F
:102930006F900C945913FC01E60FF71F9C01225075
:102940003109E217F30708F4A9C0EC01D9010D9190
:102950001C91119706171707B0F00530110508F400
:102960009BC0C80104978617970708F495C00250CA
:102970001109061B170B019311936D937C93CF01E3
:102980000E94F11389C05B01A01AB10A4C01800EAC
:10299000911EA0916E03B0916F03612C712CE12CFC
:1029A000F12C109709F446C08D919C911197A815B0
:1029B000B905B1F56C0142E0C40ED11CCA14DB04A8
:1029C00078F14C018A189B08640142E0C40ED11CC6
:1029D0001296BC9012971396AC91B5E0CB16D10429
:1029E00040F0B282A38391828082D9016D937C935F
:1029F00009C00E5F1F4F800F911FF90191838083E3
:102A0000EB2DFA2FE114F10431F0D7011396FC936A
:102A1000EE93129741C0F0936F03E0936E033CC0B6
:102A20006816790608F43C017D0112960D90BC9160
:102A3000A02DB7CF80916C0390916D0388169906F5
:102A4000E1F466167706C8F48091000290910102C5
:102A5000009741F48DB79EB7409104025091050252
:102A6000841B950BE817F907C8F4F0936D03E09306
:102A70006C03F901718360830FC0CB010E9459136D
:102A80007C01009759F0A801BE010E946415CE0197
:102A90000E94F113C70104C0CE0102C080E090E0A3
:102AA000DF91CF911F910F91FF90EF90DF90CF902A
:102AB000BF90AF909F908F907F906F90089581E02E
:102AC00090E0F8940C948E15FB01DC0102C001909B
:102AD0000D9241505040D8F70895FB01DC01019060
:102AE0000D920020E1F70895FB0151915523A9F0C3
:102AF000BF01DC014D9145174111E1F759F4CD01BA
:102B00000190002049F04D9140154111C9F3FB019E
:102B10004111EFCF81E090E001970895F894FFCF45
:102B2000000070038000000000007F020A0AB1016B
:102B3000CC02E201C001D4015265633A20000D0AC3
:102B40000067657454656D7043280029002C006788
:102B5000657454656D7046280067657448756D69C5
:102B60006469747928006765744D6F69737428000F
:102B7000776174657228007365744272696768745E
:102B80006E657373280030007365744272696768FC
:102B9000746E65737350696E732800496E76616C4C
:102BA000696420656E7472792C20706C6561736540
:102BB0002074727920616761696E006E616E0069D0
:102BC0006E66006F7666003C41726475696E6F20B8
:082BD00072656164793E0000AA
:00000001FF
