:100000000C9499010C94CA010C94CA010C94CA0175
:100010000C94CA010C94CA010C94CA010C94CA0134
:100020000C94CA010C94CA010C94CA010C94CA0124
:100030000C94CA010C94CA010C94CA010C94CA0114
:100040000C94CA010C94CA010C94CA010C94CA0104
:100050000C94CA010C94CA010C94CA010C948B0F25
:100060000C94CA010C9474110C944A110C94CA019A
:100070000C94CA010C94CA010C94CA010C94CA01D4
:100080000C94CA010C94CA010C94CA010C94CA01C4
:100090000C94CA010C94CA010C94CA010C94CA01B4
:1000A0000C94CA010C94CA010C94CA010C94CA01A4
:1000B0000C94CA010C94CA010C94CA010C94CA0194
:1000C0000C94CA010C94CA010C94CA010C94CA0184
:1000D0000C94CA010C94CA010C94CA010C94CA0174
:1000E0000C94CA01CF0BD20BC10BC50BC90B090C69
:1000F000D60BDA0BE00BE40BE80BEE0BF20BF60B76
:10010000090CFC0B000C040C830C880C8D0C970C58
:10011000A10C1A0DAB0CB30CBB0CC50CCF0CD90C3D
:10012000E80CF20C1A0DFC0C060D100D0C94AB0C27
:100130000C94F20C0C949B0E0C94FC0B0C94D60BB0
:100140000C94A10C0C94C10B0C945F0E0C94100D2C
:100150000C948D0C0C94AA110C94090C0C94F20BB9
:100160000C94E40B0C94E80B0C94B30C0C94F60B6D
:100170000C94E80C0C94C90B0C94000C0C94FC0C23
:100180000C94BB0C0C941A0D0C94C50B0C94CF0B57
:100190000C94D90C0C94E00B0C94AF0E0C94C50C81
:1001A0000C94060D0C94040C0C948C0E0C94D20B35
:1001B0000C94970C0C94DA0B0C94880C0C94BD0ED8
:1001C0000C94F50E0C94420F0C94EE0B0C94CF0C87
:1001D0000C94830C4E414E494E495459494E46CDDC
:1001E000CCCC3D0AD7233C17B7D13877CC2B3295EE
:1001F00095E6241FB14F0A000020410000C84200CC
:10020000401C4620BCBE4CCA1B0E5AAEC59D740095
:10021000002100240027002A002D003000330001B7
:10022000010000040107010A010000220025002846
:10023000002B002E003100340002010000050108EF
:10024000010B0100000A0B02090C0D0E0807030444
:10025000010000000000000000000000000000009D
:10026000000000000000000000000000000000127C
:10027000111000000000000000000000000000005D
:100280000000000000000000000000200023002605
:100290000029002C002F003200000100000301069D
:1002A00001090105050505070508080808020202FD
:1002B000020A0A0808040404040101010101010101
:1002C000010303030303030303040707070C0C0CD8
:1002D0000C0C0C0C0C0202020206060606060606B0
:1002E000060B0B0B0B0B0B0B0B010210202008084D
:1002F0001020401020408002010201080402010188
:100300000204081020408080402010080402018070
:1003100004020180402010080402010804020101C7
:1003200002040810204080010204081020408000D0
:10033000AA1111241FBECFEFD1E2DEBFCDBF00E076
:100340000CBF12E0A0E0B2E0ECE6F2E300E00BBF8D
:1003500002C007900D92A83BB107D9F723E0A8EBA4
:10036000B2E001C01D92A237B207E1F711E0C9E97E
:10037000D1E000E006C021970109802FFE010E9414
:10038000DF15C839D10780E00807A9F70E94D91105
:100390000C9434190C94000080E090E0892B21F03B
:1003A0000E94C90E811125C080E090E0892B41F0A8
:1003B00080E090E0892B21F00E94000081111CC098
:1003C00080E090E0892B41F080E090E0892B21F0E3
:1003D0000E940000811113C080E090E0892BA1F001
:1003E00080E090E0892B81F00E94000081110AC01A
:1003F00008950E940000D8CF0E940000E1CF0E9423
:100400000000EACF0C9400000895CF93DF93EC0135
:10041000FB01248135810E94E610CE01DF91CF914E
:1004200008954F925F926F927F928F929F92AF92B8
:10043000BF92CF92DF92EF92FF920F931F93CF93D1
:10044000DF93CDB7DEB768970FB6F894DEBF0FBE67
:10045000CDBF89EC882E8CEF982EAA24AA94BA2CB2
:100460008CEB92E00E94BD0E892B09F49FC76BE7CD
:1004700072E0CE0107960E94D1100E94600B97FD9A
:100480001EC08D309105D9F089831A820B851C8599
:100490000F5F1F4FB801CE0107960E947A10882384
:1004A00061F32F8138858B859C85BE016F5F7F4FFF
:1004B000820F931F0E9413191C870B87DECF68E100
:1004C00072E0CE0101960E94D110BE016F5F7F4F96
:1004D000CE0107960E94460B8C01CE0101960E9428
:1004E000CC1017FDDDC062E272E0CE0143960E949F
:1004F000D110BE016D5E7F4FCE0107960E94460B64
:100500008C0160E272E0CE010D960E94D110BE0116
:10051000635F7F4FCE0107960E94460BAC014F5F91
:100520005F4F9801BE01695F7F4FCE0101960E9427
:10053000E610CE010D960E94CC10CE0143960E948B
:10054000CC10CE0101960E94E00F64E272E0CE0171
:100550000D960E94D110BE01635F7F4FCE010196C0
:100560000E94460B9C0140E050E0BE016F5F7F4F50
:10057000CE0143960E94E610CE0143960E94D50F0D
:10058000062FCE0143960E94CC10CE010D960E94FC
:10059000CC1064E272E0CE010D960E94D110BE0133
:1005A000635F7F4FCE0101960E94460BAC014F5F07
:1005B0005F4FBE016F5F7F4FCE0143960E940502E1
:1005C000BE016D5E7F4FCE0101960E944010CE01AC
:1005D00043960E94CC10CE010D960E94CC10CE0105
:1005E00001960E94E00F64E272E0CE010D960E9437
:1005F000D110BE01635F7F4FCE0101960E94460B72
:100600009C0140E050E0BE016F5F7F4FCE014396FA
:100610000E94E610CE0143960E94D50F162FCE0100
:1006200043960E94CC10CE010D960E94CC1061E042
:10063000812F0E941E0C61E0812F0E94A00B802F51
:100640000E947C0DC0905903D0905A03E0905B0348
:10065000F0905C0320E030E048EC52E4C701B601C2
:100660000E94F51618165CF320E030E0A901C701DE
:10067000B6010E945D1487FDE2CFC0905D03D0906B
:100680005E03E0905F03F090600320E030E048EC10
:1006900052ECC701B6010E945D1487FDD0CFF7C1AF
:1006A00066E272E0CE0101960E94D110BE016F5F3A
:1006B0007F4FCE0107960E94460B8C01CE0101961A
:1006C0000E94CC1017FDF5C062E272E0CE014396A5
:1006D0000E94D110BE016D5E7F4FCE0107960E9431
:1006E000460B8C0160E272E0CE010D960E94D110A3
:1006F000BE01635F7F4FCE0107960E94460BAC019F
:100700004F5F5F4F9801BE01695F7F4FCE01019639
:100710000E94E610CE010D960E94CC10CE014396A9
:100720000E94CC10CE0101960E94E00F64E272E0BC
:10073000CE010D960E94D110BE01635F7F4FCE01A6
:1007400001960E94460B9C0140E050E0BE016F5FA5
:100750007F4FCE0143960E94E610CE0143960E9441
:10076000D50F062FCE0143960E94CC10CE010D96D8
:100770000E94CC1064E272E0CE010D960E94D1106E
:10078000BE01635F7F4FCE0101960E94460BAC0114
:100790004F5F5F4FBE016F5F7F4FCE0143960E9458
:1007A0000502BE016D5E7F4FCE0101960E94401092
:1007B000CE0143960E94CC10CE010D960E94CC1023
:1007C000CE0101960E94E00F64E272E0CE010D9628
:1007D0000E94D110BE01635F7F4FCE0101960E943F
:1007E000460B9C0140E050E0BE016F5F7F4FCE01A1
:1007F00043960E94E610CE0143960E94D50F162F15
:10080000CE0143960E94CC10CE010D960E94CC10D2
:1008100061E0812F0E941E0C61E0812F0E94A00BDD
:10082000802F0E947C0DC0905903D0905A03E09015
:100830005B03F0905C0320E030E048EC52E4C70139
:10084000B6010E94F51618165CF320E030E0A9010D
:10085000C701B6010E945D1487FDE2CFC0905D0321
:10086000D0905E03E0905F03F090600320E030E002
:1008700048EC52ECC701B6010E945D1487FDD0CF51
:1008800060E0812F0E94A00B20E030E040E151E4C5
:10089000C701B6010E94C31420E030E040EA50E4F2
:1008A0000E94541620E030E040E052E40E94E81537
:1008B0003AC260E372E0CE0101960E94D110BE01FF
:1008C0006F5F7F4FCE0107960E94460B8C01CE01D1
:1008D00001960E94CC1017FDE3C062E272E0CE01E7
:1008E00043960E94D110BE016D5E7F4FCE010796E8
:1008F0000E94460B8C0160E272E0CE010D960E94D0
:10090000D110BE01635F7F4FCE0107960E94460B58
:10091000AC014F5F5F4F9801BE01695F7F4FCE0111
:1009200001960E94E610CE010D960E94CC10CE01D9
:1009300043960E94CC10CE0101960E94E00F64E223
:1009400072E0CE010D960E94D110BE01635F7F4F11
:10095000CE0101960E94460B9C0140E050E0BE0192
:100960006F5F7F4FCE0143960E94E610CE01439603
:100970000E94D50F062FCE0143960E94CC10CE01C7
:100980000D960E94CC1064E272E0CE010D960E949A
:10099000D110BE01635F7F4FCE0101960E94460BCE
:1009A000AC014F5F5F4FBE016F5F7F4FCE0143963B
:1009B0000E940502BE016D5E7F4FCE0101960E942E
:1009C0004010CE0143960E94CC10CE010D960E949D
:1009D000CC10CE0101960E94E00F64E272E0CE01DD
:1009E0000D960E94D110BE01635F7F4FCE0101962C
:1009F0000E94460B9C0140E050E0BE016F5F7F4FBC
:100A0000CE0143960E94E610CE0143960E94D50F78
:100A1000162FCE0143960E94CC10CE010D960E9457
:100A2000CC1061E0812F0E941E0C61E0812F0E949A
:100A3000A00B802F0E947C0DC0905903D0905A03C8
:100A4000E0905B03F0905C0320E030E048EC52E47F
:100A5000C701B6010E94F51618165CF320E030E0DD
:100A6000A901C701B6010E945D1487FDE2CF20E015
:100A700030E048EC52EC60915D0370915E03809130
:100A80005F03909160030E945D1487FDD2CF60E008
:100A9000812F0E94A00B42E050E0C701B6017BC449
:100AA0006DE372E0CE0101960E94D110BE016F5F2E
:100AB0007F4FCE0107960E94460B8C01CE01019616
:100AC0000E94CC1017FD32C162E272E0CE01439663
:100AD0000E94D110BE016D5E7F4FCE0107960E942D
:100AE000460B8C0160E272E0CE010D960E94D1109F
:100AF000BE01635F7F4FCE0107960E94460BAC019B
:100B00004F5F5F4F9801BE01695F7F4FCE01019635
:100B10000E94E610CE010D960E94CC10CE014396A5
:100B20000E94CC10CE0101960E94E00F64E272E0B8
:100B3000CE010D960E94D110BE01635F7F4FCE01A2
:100B400001960E94460B9C0140E050E0BE016F5FA1
:100B50007F4FCE0143960E94E610CE0143960E943D
:100B6000D50F162FCE0143960E94CC10CE010D96C4
:100B70000E94CC1064E272E0CE010D960E94D1106A
:100B8000BE01635F7F4FCE0101960E94460BAC0110
:100B90004F5F5F4FBE016F5F7F4FCE0143960E9454
:100BA0000502BE016D5E7F4FCE0101960E9440108E
:100BB000CE0143960E94CC10CE010D960E94CC101F
:100BC000CE0101960E94E00F64E272E0CE010D9624
:100BD0000E94D110BE01635F7F4FCE0101960E943B
:100BE000460B9C0140E050E0BE016F5F7F4FCE019D
:100BF00043960E94E610CE0143960E94D50F762EB2
:100C0000CE0143960E94CC10CE010D960E94CC10CE
:100C100064E272E0CE010D960E94D110BE01635FC6
:100C20007F4FCE0101960E94460BAC014F5F5F4F94
:100C3000BE016F5F7F4FCE0143960E940502BE0149
:100C40006D5E7F4FCE0101960E944010CE0143960B
:100C50000E94CC10CE010D960E94CC10CE010196C0
:100C60000E94E00F64E272E0CE010D960E94D11066
:100C7000BE01635F7F4FCE0101960E94460B9C012F
:100C800040E050E0BE016F5F7F4FCE0143960E946F
:100C9000E6108B899C89009729F00E94A0126B01B5
:100CA0007C0103C0C12CD12C7601CE0143960E9459
:100CB000CC10CE010D960E94CC1061E0872D0E94D1
:100CC0001E0C61E0872D0E94A00B62E370E080E0C3
:100CD00090E00E94420D812F0E94230D8C0162E35F
:100CE00070E080E090E00E94420D60E0872D0E945D
:100CF000A00BC801110FAA0BBB0B9C01AD012F5F0C
:100D0000334041095109A4E6B0E00E94A315A501B2
:100D100094010E948415CA01B9010E946414A701BC
:100D200096010E94C31442E050E035C36EE472E0C5
:100D3000CE0101960E94D110BE016F5F7F4FCE01A0
:100D400007960E94460B8C01CE0101960E94CC10A2
:100D500017FD12C162E272E0CE0143960E94D110EB
:100D6000BE016D5E7F4FCE0107960E94460B8C013F
:100D700060E272E0CE010D960E94D110BE01635F69
:100D80007F4FCE0107960E94460BAC014F5F5F4F2D
:100D90009801BE01695F7F4FCE0101960E94E61067
:100DA000CE010D960E94CC10CE0143960E94CC102D
:100DB000CE0101960E94E00F64E272E0CE010D9632
:100DC0000E94D110BE01635F7F4FCE0101960E9449
:100DD000460B9C0140E050E0BE016F5F7F4FCE01AB
:100DE00043960E94E610CE0143960E94D50F162F1F
:100DF000CE0143960E94CC10CE010D960E94CC10DD
:100E000064E272E0CE010D960E94D110BE01635FD4
:100E10007F4FCE0101960E94460BAC014F5F5F4FA2
:100E2000BE016F5F7F4FCE0143960E940502BE0157
:100E30006D5E7F4FCE0101960E944010CE01439619
:100E40000E94CC10CE010D960E94CC10CE010196CE
:100E50000E94E00F64E272E0CE010D960E94D11074
:100E6000BE01635F7F4FCE0101960E94460B9C013D
:100E700040E050E0BE016F5F7F4FCE0143960E947D
:100E8000E610CE0143960E94D50F062FCE01439661
:100E90000E94CC10CE010D960E94CC1064E272E04C
:100EA000CE010D960E94D110BE01635F7F4FCE012F
:100EB00001960E94460BAC014F5F5F4FBE016F5F12
:100EC0007F4FCE0143960E940502BE016D5E7F4FAB
:100ED000CE0101960E944010CE0143960E94CC1094
:100EE000CE010D960E94CC10CE0101960E94E00F1B
:100EF00064E272E0CE010D960E94D110BE01635FE4
:100F00007F4FCE0101960E94460B9C0140E050E0CD
:100F1000BE016F5F7F4FCE0143960E94E610CE0167
:100F200043960E94D50F6B017C01CE0143960E942F
:100F3000CC10CE010D960E94CC1061E0812F0E9452
:100F40001E0C61E0802F0E941E0C61E0812F0E9428
:100F5000A00B60E0802F0E94A00BB601DD0C880B77
:100F6000990B0E94420D60E0812F0E94A00B80E04F
:100F700090E00E94610A11C265E572E0CE0101961F
:100F80000E94D110BE016F5F7F4FCE0107960E9475
:100F9000460B8C01CE0101960E94CC1017FDDAC0E1
:100FA00062E272E0CE0143960E94D110BE016D5EF6
:100FB0007F4FCE0107960E94460B8C0160E272E0E3
:100FC000CE010D960E94D110BE01635F7F4FCE010E
:100FD00007960E94460BAC014F5F5F4F9801BE0120
:100FE000695F7F4FCE0101960E94E610CE010D96FB
:100FF0000E94CC10CE0143960E94CC10CE010196E7
:101000000E94E00F64E272E0CE010D960E94D110C2
:10101000BE01635F7F4FCE0101960E94460B9C018B
:1010200040E050E0BE016F5F7F4FCE0143960E94CB
:10103000E610CE0143960E94D50F162FCE0143969F
:101040000E94CC10CE010D960E94CC1064E272E09A
:10105000CE010D960E94D110BE01635F7F4FCE017D
:1010600001960E94460BAC014F5F5F4FBE016F5F60
:101070007F4FCE0143960E940502BE016D5E7F4FF9
:10108000CE0101960E944010CE0143960E94CC10E2
:10109000CE010D960E94CC10CE0101960E94E00F69
:1010A00064E272E0CE010D960E94D110BE01635F32
:1010B0007F4FCE0101960E94460B9C0140E050E01C
:1010C000BE016F5F7F4FCE0143960E94E610CE01B6
:1010D00043960E94D50F6B017C01CE0143960E947E
:1010E000CC10CE010D960E94CC1061E0812F0E94A1
:1010F0001E0C0D2C000CEE08FF08A70196012456CB
:10110000310941095109AFEFB0E00E94A3152CE964
:101110003FEF4FEF5FEF0E948415B901812F0E94CE
:101120005A0C84E692E00E94ED09F7FE05C0C70163
:10113000B6010E94400A05C04AE0C701B6010E94FC
:10114000FF0987E792E00E94ED0989E792E00E949B
:10115000ED0923C16CE772E0CE0101960E94D11027
:10116000BE016F5F7F4FCE0107960E94460B8C0138
:10117000CE0101960E94CC1017FD13C162E272E00D
:10118000CE0143960E94D110BE016D5E7F4FCE010D
:1011900007960E94460B8C0160E272E0CE010D962C
:1011A0000E94D110BE01635F7F4FCE0107960E945F
:1011B000460BAC014F5F5F4F9801BE01695F7F4FE7
:1011C000CE0101960E94E610CE010D960E94CC1031
:1011D000CE0143960E94CC10CE0101960E94E00FF2
:1011E00064E272E0CE010D960E94D110BE01635FF1
:1011F0007F4FCE0101960E94460B9C0140E050E0DB
:10120000BE016F5F7F4FCE0143960E94E610CE0174
:1012100043960E94D50FC62ECE0143960E94CC1055
:10122000CE010D960E94CC1064E272E0CE010D96C4
:101230000E94D110BE01635F7F4FCE0101960E94D4
:10124000460BAC014F5F5F4FBE016F5F7F4FCE011A
:1012500043960E940502BE016D5E7F4FCE0101964E
:101260000E944010CE0143960E94CC10CE010D96F4
:101270000E94CC10CE0101960E94E00F64E272E061
:10128000CE010D960E94D110BE01635F7F4FCE014B
:1012900001960E94460B9C0140E050E0BE016F5F4A
:1012A0007F4FCE0143960E94E610CE0143960E94E6
:1012B000D50FD62ECE0143960E94CC10CE010D96AE
:1012C0000E94CC10E12CF12C412C512C320185E0F4
:1012D000E816F10409F44DC061E08D2D0E941E0C4A
:1012E00061E08D2D0E94A00B62E370E080E090E051
:1012F0000E94420D80E992E00E94ED098C2D0E942F
:10130000230D0E94610A8C2D0E94230D8C0162E343
:1013100070E080E090E00E94420D60E08D2D0E9420
:10132000A00BC801110FAA0BBB0B9C01AD012F5FD5
:10133000334041095109A4E6B0E00E94A315A5017C
:1013400094010E948415CA01B9010E9464149B0192
:10135000AC01C301B2010E94E8152B013C0168EC0D
:1013600070E080E090E00E94420D8FEFE81AF80AEA
:10137000AECF20E030E040EA50E4C301B2010E9469
:1013800054169B01AC0160E070E088EC92E40E948E
:10139000541645E050E00E94790ACE0101960E9461
:1013A000CC10CE0107960E94CC105AC868960FB692
:1013B000F894DEBF0FBECDBFDF91CF911F910F918B
:1013C000FF90EF90DF90CF90BF90AF909F908F9065
:1013D0007F906F905F904F900895009769F0FC01A7
:1013E00001900020E9F73197AF01481B590BBC0170
:1013F0008CEB92E00C945F0E80E090E008958F9269
:101400009F92AF92BF920F931F93CF93DF93CDB76D
:10141000DEB7A1970FB6F894DEBF0FBECDBF19A2FD
:10142000423008F44AE08E010F5D1F4F842E912C4C
:10143000A12CB12CA50194010E94AE15E62FB90193
:10144000CA0101501109EA3014F4E05D01C0E95C01
:10145000D801EC93232B242B252B61F7C8010E9484
:10146000ED09A1960FB6F894DEBF0FBECDBFDF9198
:10147000CF911F910F91BF90AF909F908F90089543
:10148000CF92DF92EF92FF92CF93DF936B017C01BB
:101490006DE28CEB92E00E94F50EEC016627772757
:1014A000CB016C197D098E099F094AE00E94FF0952
:1014B0008C0F9D1FDF91CF91FF90EF90DF90CF9029
:1014C0000895CF93DF93BC01990F880B990B97FF79
:1014D00003C00E94400A03C04AE00E94FF09EC01D9
:1014E00089E792E00E94ED098C0F9D1FDF91CF915B
:1014F00008958F929F92AF92BF92CF92DF92EF9218
:10150000FF920F931F93CF93DF936B017C01142FF6
:101510009B01AC010E94FA16882319F088E992E039
:1015200027C046015701E894B7F82FEF3FEF4FE788
:101530005FE7C501B4010E94FA1681110DC02FEFBB
:101540003FEF4FE75FE7C501B4010E945D14181635
:101550001CF48CE992E00CC02FEF3FEF4FE75FE403
:10156000C701B6010E94F516181634F480EA92E01D
:101570000E94ED09EC0177C02FEF3FEF4FE75FECE2
:10158000C701B6010E945D1487FDF0CF20E030E076
:10159000A901C701B6010E945D1487FF0BC06DE26F
:1015A0008CEB92E00E94F50EEC01F7FAF094F7F85C
:1015B000F09402C0C0E0D0E000E060E070E080E0C5
:1015C0009FE3011740F420E030E040E251E40E9444
:1015D00054160F5FF6CFA70196010E94E8156B0124
:1015E0007C010E94C6164B015C014AE00E94FF0983
:1015F000C80FD91F1123B9F1C501B4010E946214AB
:101600009B01AC01C701B6010E94E7156B017C018B
:101610006EE28CEB92E00E94F50EC80FD91F20E01D
:1016200030E040E251E4C701B6010E94C3144B010F
:101630005C010E94C6166B01E12CF12C4AE0C70147
:10164000B6010E94FF09C80FD91FC701B6010E9449
:1016500062149B01AC01C501B4010E94E7156B0146
:101660007C011150E1F689E792E00E94ED098C0FB0
:101670009D1FDF91CF911F910F91FF90EF90DF9011
:10168000CF90BF90AF909F908F900895CF93DF93AE
:10169000FC0124813581232B71F0FB01DC01CD910C
:1016A000DC9160817181CE010E941A19009719F0B6
:1016B0008C1B9D0B02C08FEF9FEFDF91CF910895A0
:1016C0002FB7F8948091B8029091B902A091BA0214
:1016D000B091BB022FBF8093C4029093C502A09328
:1016E000C602B093C7028CEB92E00E949B0E97FF5C
:1016F00026C02FB7F8948091B8029091B902A091BA
:10170000BA02B091BB022FBF4091C4025091C502F2
:101710006091C6027091C702841B950BA60BB70B94
:101720004091C0025091C1026091C2027091C30207
:1017300084179507A607B707B0F28FEF9FEF0895BC
:10174000362F90E0FC01ED5BFD4F4491FC01E75129
:10175000FD4F2491FC01ED55FD4F9491992309F41F
:101760006CC0442309F455C050E0FA013197E231CE
:10177000F10508F04EC08827EE58FF4F8F4F0C94AC
:10178000DF15809180008F7707C0809180008F7D6A
:1017900003C080918000877F809380003AC084B529
:1017A0008F7702C084B58F7D84BD33C08091B00037
:1017B0008F7703C08091B0008F7D8093B00029C0E7
:1017C000809190008F7707C0809190008F7D03C03B
:1017D00080919000877F809390001BC08091A00033
:1017E0008F7707C08091A0008F7D03C08091A000FB
:1017F000877F8093A0000DC0809120018F7707C064
:10180000809120018F7D03C080912001877F80938C
:101810002001E92FF0E0EE0FFF1FE75DFD4FA591DE
:10182000B4919FB7F894311104C08C91209528236E
:1018300002C0EC912E2B2C939FBF0895CF93DF9382
:1018400090E0FC01E751FD4F2491FC01ED55FD4F67
:101850008491882361F190E0880F991FFC01E15F7A
:10186000FD4FC591D491FC01E75DFD4FA591B49169
:10187000611109C09FB7F8948881209582238883DD
:10188000EC912E230BC0623061F49FB7F8948881ED
:10189000322F309583238883EC912E2B2C939FBF7E
:1018A00006C08FB7F894E8812E2B28838FBFDF9175
:1018B000CF9108951F93CF93DF93182FEB0161E031
:1018C0000E941E0C209711F460E004C0CF3FD105A8
:1018D00039F461E0812FDF91CF911F910C94A00B1F
:1018E000E12FF0E0ED5BFD4FE4918E2F90E0FC01E5
:1018F0003197E231F10508F09DC08827EC57FF4F82
:101900008F4F0C94DF1584B5806884BDC7BD97C028
:1019100084B5806284BDC8BD92C08091800080681B
:1019200080938000D0938900C093880088C0809104
:101930008000806280938000D0938B00C0938A00E7
:101940007EC080918000886080938000D0938D005D
:10195000C0938C0074C08091B00080688093B00008
:10196000C093B3006CC08091B00080628093B000DF
:10197000C093B40064C08091900080688093900010
:10198000D0939900C09398005AC0809190008062D3
:1019900080939000D0939B00C0939A0050C0809198
:1019A0009000886080939000D0939D00C0939C002D
:1019B00046C08091A00080688093A0008091A00024
:1019C0008F7B8093A000D093A900C093A80037C05C
:1019D0008091A00080628093A000D093AB00C09360
:1019E000AA002DC08091A00088608093A000D093B1
:1019F000AD00C093AC0023C080912001806880932B
:101A00002001D0932901C093280119C080912001A1
:101A1000806280932001D0932B01C0932A010FC0D4
:101A200080912001886080932001D0932D01C09384
:101A30002C0105C0C038D1050CF04BCF45CFDF914C
:101A4000CF911F910895863308F0865390917B00C3
:101A5000282F2870977F922B90937B00877080644B
:101A600080937C0080917A00806480937A008091DA
:101A70007A0086FDFCCF809178002091790090E07B
:101A8000922B08958F929F92AF92BF92CF92DF9246
:101A9000EF92FF926B017C010E94660F4B015C018B
:101AA000C114D104E104F104F1F00E94660FDC01DD
:101AB000CB0188199909AA09BB09883E9340A10561
:101AC000B10570F321E0C21AD108E108F10888EEEF
:101AD000880E83E0981EA11CB11CC114D104E1043E
:101AE000F10419F7DDCFFF90EF90DF90CF90BF901A
:101AF000AF909F908F9008957F928F929F92AF9218
:101B0000BF92CF92DF92EF92FF920F931F93CF93EA
:101B1000DF93D82F80916603882309F0F8948D2FE6
:101B200090E0FC01E751FD4F7490FC01ED55FD4F35
:101B3000E491F0E0EE0FFF1FE757FD4F0591149180
:101B400061E08D2F0E941E0C60E08D2F0E94A00B83
:101B500062E170E080E090E00E94420D60E08D2F35
:101B60000E941E0C80E293E0E8012881272121F0E9
:101B70000197D1F71DEF5DC080E991E0F801208168
:101B8000272121F40197D1F71CEF53C080E991E0A0
:101B9000E8012881272121F00197D1F71BEF49C0E7
:101BA000A0E060E040E820E030E080E991E0E0E99A
:101BB000F1E0B0E078E250E9852E99249394A12CCD
:101BC000B12CE8015881572161F5BB2351F17832DE
:101BD00099F48E179F0708F4FC0175016401CE1A71
:101BE000DF0AE108F10882E0F594E794D794C794FE
:101BF0008A95D1F7960107C07F01E21AF30AE81629
:101C0000F90608F0642B469549F48A2F90E0875A2C
:101C10009C4FEC016887AF5F60E040E8715080E95D
:101C200091E0019729F0B52F7111CBCF10E001C0E1
:101C30001EEF80916603882309F07894D0916103A8
:101C4000DF77D0936103C0916303CF77C0936303C1
:101C50006D2F70E080E090E00E9462146093590361
:101C600070935A0380935B0390935C036C2F70E036
:101C700080E090E00E94621460935D0370935E03C5
:101C800080935F039093600390916203809164035B
:101C9000890FD80FCD0F80916503C8131FEF812FD7
:101CA000DF91CF911F910F91FF90EF90DF90CF9038
:101CB000BF90AF909F908F907F9008950895CF929E
:101CC000DF92EF92FF920F931F93CF93DF936C01FC
:101CD0007A018B01C0E0D0E0CE15DF0581F0D8019C
:101CE0006D918D01D601ED91FC910190F081E02D77
:101CF000C6011995892B11F02196EECF7E01C701FF
:101D0000DF91CF911F910F91FF90EF90DF90CF90D7
:101D1000089580E090E00895FC01538D448D252FB7
:101D200030E0842F90E0821B930B541710F0CF9675
:101D3000089501970895FC01918D828D981761F0A7
:101D4000828DDF01A80FB11D5D968C91928D9F5FF2
:101D50009F73928F90E008958FEF9FEF0895FC019D
:101D6000918D828D981731F0828DE80FF11D858D50
:101D700090E008958FEF9FEF0895FC01918D228DE3
:101D8000892F90E0805C9F4F821B91098F73992768
:101D900008958CEB92E00E94BD0E21E0892B09F49E
:101DA00020E0822F0895FC01848DDF01A80FB11D72
:101DB000A35ABF4F2C91848D90E001968F73992781
:101DC000848FA689B7892C93A089B1898C9183705F
:101DD00080648C93938D848D981306C00288F38958
:101DE000E02D80818F7D80830895EF92FF920F9385
:101DF0001F93CF93DF93EC0181E0888F9B8D8C8DB7
:101E0000981305C0E889F989808185FD26C0F62EE2
:101E10000B8D10E00F5F1F4F0F731127E02E8C8D7D
:101E2000E8120CC00FB607FCFACFE889F989808167
:101E300085FFF5CFCE010E94D30EF1CF8B8DFE0131
:101E4000E80FF11DE35AFF4FF0829FB7F8940B8F14
:101E5000EA89FB89808180620AC09FB7F894EE8985
:101E6000FF896083E889F989808183708064808339
:101E70009FBF81E090E0DF91CF911F910F91FF9084
:101E8000EF900895CF93DF93EC01888D8823C9F0FC
:101E9000EA89FB89808185FD05C0A889B9898C9173
:101EA00086FD0FC00FB607FCF5CF808185FFF2CF0E
:101EB000A889B9898C9185FFEDCFCE010E94D30E00
:101EC000E7CFDF91CF9108950E9405193FB7F894AD
:101ED0008091680390916903A0916A03B0916B03AC
:101EE00026B5A89B05C02F3F19F00196A11DB11D75
:101EF0003FBFBA2FA92F982F8827820F911DA11DB0
:101F0000B11DBC01CD0142E0660F771F881F991FEC
:101F10004A95D1F708951F920F920FB60F92112490
:101F20002F933F938F939F93AF93BF938091B8026A
:101F30009091B902A091BA02B091BB0230916703AF
:101F400023E0230F2D3720F40196A11DB11D05C0FC
:101F500026E8230F0296A11DB11D209367038093ED
:101F6000B8029093B902A093BA02B093BB028091D9
:101F7000680390916903A0916A03B0916B03019685
:101F8000A11DB11D8093680390936903A0936A0318
:101F9000B0936B03BF91AF919F918F913F912F9120
:101FA0000F900FBE0F901F901895FC0180819181BA
:101FB000009711F00C94A41260E070E0CB0108953A
:101FC000AF92BF92CF92DF92EF92FF920F931F9347
:101FD000CF93DF93DC01CD90DC901197C114D10435
:101FE00009F443C01496CD91DC9115972097E9F13F
:101FF0008C0176015701BFEFAB1ABB0AF701808154
:10200000082E000C990B0E943C14892B11F07501CD
:10201000F1CF2197CC0DDD1D8881082E000C990B86
:102020000E943C14892B29F0CE15DF0510F0219772
:10203000F3CFAE014F5F5F4F4E195F09D801159680
:102040005C934E931497CE14DF0420F4B701C601BD
:102050000E940A19D801ED91FC91119714968D9167
:102060009C911597E80FF91F1082DF91CF911F9176
:102070000F91FF90EF90DF90CF90BF90AF900895B9
:102080000F931F93CF93DF938C01EB01FC018081B1
:102090009181009739F06881798161157105A1F40A
:1020A0000E94971788819981F801918380838A81A2
:1020B0009B81938382838C819D8195838483198204
:1020C00018821B821A820FC0F801428153812C8131
:1020D0003D814217530720F30E9413198C819D8183
:1020E000F801958384831D821C82DF91CF911F911B
:1020F0000F9108950F931F93CF93DF93EC01888185
:102100009981009729F02A813B812617370788F4A7
:102110008B016F5F7F4F0E942018009761F09983B9
:1021200088831B830A832C813D81232B11F4FC01BE
:10213000108281E001C080E0DF91CF911F910F916B
:102140000895EF92FF920F931F93CF93DF93EC01CB
:102150007B018A01BA010E947A102881398181119C
:102160000DC02115310519F0C9010E949717198278
:1021700018821D821C821B821A8206C01D830C835A
:10218000B701C9010E941319CE01DF91CF911F91B0
:102190000F91FF90EF900895FC01808191810C9444
:1021A0009717FC0111821082138212821582148209
:1021B0006115710551F0FB0101900020E9F731979D
:1021C000AF01461B570B0C94A1100895BF92CF92FC
:1021D000DF92EF92FF920F931F93CF93DF937C01D7
:1021E0006B01EA0189012417350720F48D2FE901DD
:1021F000042F182F6BE772E0C7010E94D110D6019F
:1022000014968D919C911597C817D907C0F5801722
:10221000910708F48C01D601ED91FC911197E00F24
:10222000F11FB08010826D917C916C0F7D1F611544
:10223000710561F0FB0101900020E9F73197AF01D2
:10224000461B570BC7010E94A11013C0F7018081E4
:102250009181009711F00E949717D70111961C9257
:102260001E9215961C921E92149713961C921E9203
:102270001297D601ED91FC91E00FF11FB082C701DA
:10228000DF91CF911F910F91FF90EF90DF90CF9052
:10229000BF9008951F920F920FB60F9211240BB6A4
:1022A0000F922F933F934F935F936F937F938F93EF
:1022B0009F93AF93BF93EF93FF938CEB92E00E94B9
:1022C000D30EFF91EF91BF91AF919F918F917F912D
:1022D0006F915F914F913F912F910F900BBE0F9097
:1022E0000FBE0F901F9018951F920F920FB60F926E
:1022F00011240BB60F922F938F939F93EF93FF931D
:10230000E091CC02F091CD028081E091D202F09177
:10231000D30282FD12C090818091D5028F5F8F73AE
:102320002091D602821751F0E091D502F0E0E454FA
:10233000FD4F958F8093D50201C08081FF91EF9171
:102340009F918F912F910F900BBE0F900FBE0F900A
:102350001F901895ECEBF2E01382128288EE93E066
:10236000A0E0B0E084839583A683B7838AE092E0FF
:102370009183808385EC90E09587848784EC90E05E
:102380009787868780EC90E0918B808B81EC90E042
:10239000938B828B82EC90E0958B848B86EC90E023
:1023A000978B868B118E128E138E148E109266036D
:1023B0000895789484B5826084BD84B5816084BDBD
:1023C00085B5826085BD85B5816085BD80916E00D3
:1023D000816080936E001092810080918100826004
:1023E0008093810080918100816080938100809141
:1023F00080008160809380008091B1008460809330
:10240000B1008091B00081608093B0008091910014
:10241000826080939100809191008160809391000F
:10242000809190008160809390008091A1008260F3
:102430008093A1008091A10081608093A100809190
:10244000A00081608093A000809121018260809330
:1024500021018091210181608093210180912001DF
:1024600081608093200180917A00846080937A005B
:1024700080917A00826080937A0080917A008160F6
:1024800080937A0080917A00806880937A0010921D
:10249000C100E091CC02F091CD0282E08083E09116
:1024A000C802F091C9021082E091CA02F091CB02F9
:1024B00080E180831092D402E091D002F091D102A9
:1024C00086E08083E091CE02F091CF02808180612E
:1024D0008083E091CE02F091CF028081886080837A
:1024E000E091CE02F091CF02808180688083E091FC
:1024F000CE02F091CF0280818F7D808380ED97E0C6
:10250000A0E0B0E08093C0029093C102A093C20209
:10251000B093C30284EA92E00E94ED0989E792E059
:102520000E94ED0961E08CE00E941E0C6FEF70E0EC
:102530008CE00E945A0C0E9411020E94CC01FBCF39
:10254000662777270C94E0121F93FC0199278827B0
:10255000BC01E89411911032E9F3193010F01E30EB
:10256000C8F31B3251F01D3249F4689406C00E9432
:10257000CB12610F711D811D911D119110531A30E5
:10258000B0F33EF490958095709561957F4F8F4F95
:102590009F4F1F910895592F482F372F262F660FD1
:1025A000771F881F991F660F771F881F991F620F5B
:1025B000731F841F951F660F771F881F991F08952B
:1025C0008F929F92AF92BF92CF92DF92EF92FF9243
:1025D0000F931F93CF93DF93EC016B01611571058E
:1025E00019F0FB01918380837E01FFEFEF1AFF0A50
:1025F0000881802F90E00E943C14892B11F0E701A4
:10260000F3CF0D3239F47E0182E0E80EF11C09812E
:1026100011E008C00B3229F47E0192E0E90EF11CB2
:10262000098110E0E701219743E050E06CED71E093
:10263000CE010E944514892BC1F4239645E050E059
:1026400067ED71E0CE010E944514892B09F42596AF
:10265000C114D10419F0F601D183C0831111F6C061
:1026600060E070E080E89FE7FAC043E050E064ED8E
:1026700071E0CE010E944514892B59F4C114D10494
:1026800009F4E9C0F2E0EF0EF11CF601F182E082FC
:10269000E2C020E030E0A901C0E0D0E0F70160ED49
:1026A000A62EA00E89E08A1530F1912F9260B92EE6
:1026B000812F887012FF04C0811124C0219622C08E
:1026C00081112197A5E0B0E00E94A315DC01CB01A8
:1026D000880F991FAA1FBB1F9C01AD012A0D311D38
:1026E000411D511D283989E93807480789E15807F4
:1026F00048F0166006C09EEFA9120AC013FD40C044
:102700001860B12E8FEFE81AF80A00811B2DC6CF92
:10271000802F8F7D8534A1F580818D3211F4106179
:1027200006C08B3221F0319661E070E004C08181F7
:10273000329662E070E080538A3018F0E61BF70BA7
:102740001FC060E070E060389CE079075CF4DB015A
:10275000AA0FBB1FAA0FBB1F6A0F7B1F660F771F35
:10276000680F711D3196DF0111978C9180538A306B
:1027700050F314FF03C0719561957109C60FD71FFF
:1027800011FF08C0C114D10429F0CF010197F6014F
:1027900091838083CA01B9010E946214212F2370A2
:1027A000233019F04B015C0106C04B015C01B7FA04
:1027B000B094B7F8B09420E030E0A901C501B401AD
:1027C0000E945D14882309F43EC0D7FF06C0D1954E
:1027D000C195D10903EF11E002C00BE012E06801DE
:1027E000F8E1CF1AD10890E2E92EF12CCE15DF05E1
:1027F00074F0F8012591359145915491C501B401CA
:102800000E94C3144B015C01CE19DF09EFCF0450C5
:102810001109F594E7940C151D0541F78A2D880FD1
:102820008B2D881F8F3F49F020E030E0A901C501C2
:10283000B4010E945D14811106C082E290E0909381
:102840006D0380936C03C501B40109C060E070E0C2
:1028500080E89FEF04C060E070E080EC9FE7DF91CC
:10286000CF911F910F91FF90EF90DF90CF90BF908D
:10287000AF909F908F90089591110C9430158032F5
:1028800019F089508550C8F70895FB01DC014150CB
:10289000504088F08D9181341CF08B350CF4805EB3
:1028A000659161341CF06B350CF4605E861B611120
:1028B00071F3990B0895881BFCCF0E949F1408F4B4
:1028C00081E00895E89409C097FB3EF490958095C7
:1028D000709561957F4F8F4F9F4F9923A9F0F92FE6
:1028E00096E9BB279395F695879577956795B79564
:1028F000F111F8CFFAF4BB0F11F460FF1BC06F5F4A
:102900007F4F8F4F9F4F16C0882311F096E911C05B
:10291000772321F09EE8872F762F05C0662371F07C
:1029200096E8862F70E060E02AF09A95660F771F90
:10293000881FDAF7880F9695879597F90895990F6C
:102940000008550FAA0BE0E8FEEF16161706E80779
:10295000F907C0F012161306E407F50798F0621B9A
:10296000730B840B950B39F40A2661F0232B242B6F
:10297000252B21F408950A2609F4A140A6958FEF8E
:10298000811D811D08950E94D6140C944A150E9441
:102990003C1538F00E94431520F0952311F00C945B
:1029A00033150C94391511240C947E150E945B1577
:1029B00070F3959FC1F3950F50E0551F629FF00192
:1029C000729FBB27F00DB11D639FAA27F00DB11DAB
:1029D000AA1F649F6627B00DA11D661F829F222734
:1029E000B00DA11D621F739FB00DA11D621F839FBB
:1029F000A00D611D221F749F3327A00D611D231F91
:102A0000849F600D211D822F762F6A2F11249F57DE
:102A100050409AF0F1F088234AF0EE0FFF1FBB1FE1
:102A2000661F771F881F91505040A9F79E3F5105A0
:102A300080F00C9433150C947E155F3FE4F3983EC0
:102A4000D4F3869577956795B795F795E7959F5F4A
:102A5000C1F7FE2B880F911D9695879597F90895DC
:102A600099278827089597F99F6780E870E060E0CC
:102A700008959FEF80EC089500240A941616170617
:102A800018060906089500240A941216130614065F
:102A900005060895092E0394000C11F4882352F0C2
:102AA000BB0F40F4BF2B11F460FF04C06F5F7F4F7A
:102AB0008F4F9F4F089557FD9058440F551F59F061
:102AC0005F3F71F04795880F97FB991F61F09F3F1B
:102AD00079F087950895121613061406551FF2CF44
:102AE0004695F1DF08C0161617061806991FF1CF94
:102AF00086957105610508940895E894BB276627BB
:102B00007727CB0197F90895052E97FB1EF40094C3
:102B10000E949B1557FD07D00E94AE1507FC03D0FD
:102B20004EF40C949B1550954095309521953F4F50
:102B30004F4F5F4F089590958095709561957F4FA9
:102B40008F4F9F4F08950E94D015A59F900DB49F61
:102B5000900DA49F800D911D11240895A1E21A2EBD
:102B6000AA1BBB1BFD010DC0AA1FBB1FEE1FFF1F31
:102B7000A217B307E407F50720F0A21BB30BE40B81
:102B8000F50B661F771F881F991F1A9469F76095C8
:102B90007095809590959B01AC01BD01CF01089582
:102BA000A29FB001B39FC001A39F700D811D11248E
:102BB000911DB29F700D811D1124911D0895EE0F7E
:102BC000FF1F881F8BBF0790F691E02D1994505876
:102BD000BB27AA270E94FF150C944A150E943C159A
:102BE00038F00E94431520F039F49F3F19F426F481
:102BF0000C9439150EF4E095E7FB0C943315E92F8E
:102C00000E945B1558F3BA1762077307840795078C
:102C100020F079F4A6F50C947D150EF4E0950B2EBA
:102C2000BA2FA02D0B01B90190010C01CA01A0011E
:102C30001124FF27591B99F0593F50F4503E68F179
:102C40001A16F040A22F232F342F4427585FF3CFBA
:102C5000469537952795A795F0405395C9F77EF48B
:102C60001F16BA0B620B730B840BBAF09150A1F0D4
:102C7000FF0FBB1F661F771F881FC2F70EC0BA0F5A
:102C8000621F731F841F48F4879577956795B795E2
:102C9000F7959E3F08F0B0CF9395880F08F09927DD
:102CA000EE0F9795879508950E9468160C944A1523
:102CB0000E94431558F00E943C1540F029F45F3FF4
:102CC00029F00C94331551110C947E150C94391580
:102CD0000E945B1568F39923B1F3552391F3951B7B
:102CE000550BBB27AA2762177307840738F09F5F2D
:102CF0005F4F220F331F441FAA1FA9F335D00E2E9A
:102D00003AF0E0E832D091505040E695001CCAF706
:102D10002BD0FE2F29D0660F771F881FBB1F2617C9
:102D200037074807AB07B0E809F0BB0B802DBF01A0
:102D3000FF2793585F4F3AF09E3F510578F00C946F
:102D400033150C947E155F3FE4F3983ED4F38695DB
:102D500077956795B795F7959F5FC9F7880F911D90
:102D60009695879597F90895E1E0660F771F881F7C
:102D7000BB1F621773078407BA0720F0621B730B2F
:102D8000840BBA0BEE1F88F7E09508950E94631537
:102D900088F09F5798F0B92F9927B751B0F0E1F01C
:102DA000660F771F881F991F1AF0BA95C9F714C0CC
:102DB000B13091F00E947D15B1E008950C947D151D
:102DC000672F782F8827B85F39F0B93FCCF3869505
:102DD00077956795B395D9F73EF490958095709562
:102DE00061957F4F8F4F9F4F08950E949F1408F465
:102DF0008FEF08950E949F14880B990B08950F93ED
:102E00001F93CF93DF938230910510F482E090E01E
:102E1000E0917003F091710320E030E0A0E0B0E0B9
:102E2000309719F140815181028113814817590768
:102E3000C8F08417950769F4109731F012960C9337
:102E4000129713961C9327C000937003109371037D
:102E500022C02115310519F04217530718F49A01C1
:102E6000BD01EF01DF01F801DBCF21153105F9F0DC
:102E7000281B390B2430310580F48A819B81611530
:102E8000710521F0FB019383828304C09093710349
:102E900080937003FE01329644C0FE01E20FF31FDF
:102EA0008193919322503109398328833AC020912C
:102EB0006E0330916F03232B41F420910202309175
:102EC000030230936F0320936E0320910002309130
:102ED00001022115310541F42DB73EB7409104029E
:102EE00050910502241B350BE0916E03F0916F03A6
:102EF000E217F307A0F42E1B3F0B2817390778F0D1
:102F0000AC014E5F5F4F2417350748F04E0F5F1F2F
:102F100050936F0340936E038193919302C0E0E05E
:102F2000F0E0CF01DF91CF911F910F910895CF93E2
:102F3000DF93009709F481C0FC013297138212825B
:102F4000A0917003B0917103109781F420813181B9
:102F5000820F931F20916E0330916F03281739075A
:102F600051F5F0936F03E0936E0367C0ED0120E02D
:102F700030E0CE17DF0740F44A815B819E014115A6
:102F80005105F1F0EA01F5CFD383C283408151812D
:102F9000840F951FC817D90759F488819981840F28
:102FA000951F0296918380838A819B81938382837C
:102FB0002115310529F4F0937103E09370033DC0AE
:102FC000E901FB83EA8349915991C40FD51FEC179E
:102FD000FD0761F480819181840F951F0296E901BC
:102FE00099838883828193819B838A83E0E0F0E0E8
:102FF00012968D919C911397009719F0FD01DC01B9
:10300000F7CF8D919C9111979D012E5F3F4F820FBD
:10301000931F20916E0330916F032817390769F4CD
:10302000309729F4109271031092700302C013823A
:103030001282B0936F03A0936E03DF91CF91089536
:103040006F927F928F929F92AF92BF92CF92DF92B8
:10305000EF92FF920F931F93CF93DF93009789F422
:10306000CB01DF91CF911F910F91FF90EF90DF90F7
:10307000CF90BF90AF909F908F907F906F900C9467
:10308000FF16FC01E60FF71F9C0122503109E217E1
:10309000F30708F4A9C0EC01D9010D911C91119717
:1030A00006171707B0F00530110508F49BC0C801DA
:1030B00004978617970708F495C002501109061B5C
:1030C000170B019311936D937C93CF010E94971777
:1030D00089C05B01A01AB10A4C01800E911EA0911B
:1030E0007003B0917103612C712CE12CF12C1097BD
:1030F00009F446C08D919C911197A815B905B1F5B9
:103100006C0142E0C40ED11CCA14DB0478F14C01FE
:103110008A189B08640142E0C40ED11C1296BC9030
:1031200012971396AC91B5E0CB16D10440F0B28261
:10313000A38391828082D9016D937C9309C00E5F35
:103140001F4F800F911FF90191838083EB2DFA2F80
:10315000E114F10431F0D7011396FC93EE9312972A
:1031600041C0F0937103E09370033CC06816790688
:1031700008F43C017D0112960D90BC91A02DB7CFB3
:1031800080916E0390916F0388169906E1F466169C
:103190007706C8F48091000290910102009741F4F3
:1031A0008DB79EB74091040250910502841B950B88
:1031B000E817F907C8F4F0936F03E0936E03F90181
:1031C000718360830FC0CB010E94FF167C010097C2
:1031D00059F0A801BE010E940A19CE010E9497175A
:1031E000C70104C0CE0102C080E090E0DF91CF9122
:1031F0001F910F91FF90EF90DF90CF90BF90AF9015
:103200009F908F907F906F90089581E090E0F89468
:103210000C943419FB01DC0102C001900D92415065
:103220005040D8F70895FB01DC0101900D92002079
:10323000E1F70895FB0151915523A9F0BF01DC018D
:103240004D9145174111E1F759F4CD01019000204E
:1032500049F04D9140154111C9F3FB014111EFCFE8
:0C32600081E090E001970895F894FFCF02
:10326C0000007203800000000000F50E5F0E8C0E53
:10327C00420FBD0E9B0EAF0E67657454656D7043A7
:10328C00280029002C0067657454656D7046280071
:10329C0067657448756D696469747928006765742D
:1032AC00536F696C4D6F6973747572652800776123
:1032BC0074657228007365744272696768746E6510
:1032CC0073732800536574206272696768746E6545
:1032DC00737320746F200025000D0A00676574431A
:1032EC00616C6962726174696F6E436F6566280008
:1032FC006D6F6973743A20006E616E00696E6600C2
:10330C006F7666003C41726475696E6F206973203C
:08331C0072656164793E000056
:00000001FF
